:020000040800F2
:100000000000012055040008F9030008FB03000864
:10001000FD030008FF0300080104000800000000C1
:1000200000000000000000000000000003040008C1
:100030000504000800000000070400080904000887
:100040009D0400089D0400089D0400089D0400080C
:100050009D0400089D040008110400089D04000888
:100060009D0400089D040008290400089D04000860
:100070009D0400089D0400089D0400089D040008DC
:100080009D0400089D0400089D0400089D040008CC
:10009000410400089D0400089D0400089D04000818
:1000A0009D0400089D0400089D0400089D040008AC
:1000B0009D0400089D0400089D0400089D0400089C
:1000C0009D0400089D0400089D0400089D0400088C
:1000D0009D0400089D0400089D0400089D0400087C
:1000E0009D0400089D0400089D0400089D0400086C
:1000F0009D0400089D0400089D0400089D0400085C
:100100009D0400089D0400089D0400089D0400084B
:100110009D0400089D0400089D0400089D0400083B
:100120009D0400089D0400089D0400089D0400082B
:1001300000000000000000000000000000000000BF
:1001400000000000000000000000000000000000AF
:10015000000000000000000000000000000000009F
:10016000000000000000000000000000000000008F
:10017000000000000000000000000000000000007F
:10018000000000000000000000000000000000006F
:10019000000000000000000000000000000000005F
:1001A000000000000000000000000000000000004F
:1001B000000000000000000000000000000000003F
:1001C000000000000000000000000000000000002F
:1001D000000000000000000000000000000000001F
:0401E0005FF8E0F1F3
:1001E40010B5054C237833B9044B13B10448AFF36D
:1001F40000800123237010BD94050020000000003E
:10020400503F000808B5034B1BB103490348AFF343
:10021400008008BD0000000098050020503F000841
:100224002DE9F04788B000240494059406940794BB
:10023400334B9A6942F040029A619A6902F0400293
:100244000192019A9A6942F004029A619A6902F051
:1002540004020292029A9A6942F008029A619B6926
:1002640003F008030393039B264E224620213046C5
:1002740000F0EAFA244F22462021384600F0E4FA3E
:1002840010230493DFF884A0CDF814A006940DEB9A
:100294000301304600F0B8F94FF02009CDF8109072
:1002A4000125059506944FF00208CDF81C8004A999
:1002B400304600F0A9F90495CDF814A0069404A9D9
:1002C400134800F0A1F9CDF8109005950694CDF8E7
:1002D4001C8004A9384600F097F9224621460620DE
:1002E40000F038F9062000F06DF9224621460A2074
:1002F40000F030F90A2000F065F908B0BDE8F08795
:100304000010024000180140000C014000001110D0
:100314000008014072B6FEE700B597B0282200211C
:100324000CA803F051FD00230793089309930A9343
:100334000B93019302930393049305930693012271
:100344000C924FF480330D93109202221392149363
:100354004FF4E01315930CA801F058FAC0B90F2319
:10036400079302210891002309934FF480620A92B3
:100374000B9307A801F088FC60B9102301930023B4
:10038400069301A801F036FD30B917B05DF804FBFF
:10039400FFF7C0FFFFF7BEFFFFF7BCFF08B500F093
:1003A400A3F8FFF7B9FFFFF73BFF03F023FBFEE7DA
:1003B40082B00E4B9A6942F001029A619A6902F086
:1003C40001020092009ADA6942F08052DA61DB6934
:1003D40003F080530193019B054A536823F0E063C3
:1003E40043F00073536002B0704700BF0010024036
:1003F40000000140FEE7FEE7FEE7FEE7FEE7704788
:100404007047704708B500F081F808BD08B50120B1
:1004140000F02AFA2021024800F01CFA08BD00BFAF
:100424000018014008B5102000F01EFA20210248EF
:1004340000F010FA08BD00BF000C014008B50248E6
:1004440000F093FF08BD00BF7C0A00207047000045
:100454000C480D490D4A002302E0D458C45004331B
:10046400C4188C42F9D30A4A0A4C002301E01360F1
:100474000432A242FBD3FFF7E9FF03F081FCFFF74C
:100484008DFF70470000002094050020E03F000825
:1004940094050020800D0020FEE7000010B50446FE
:1004A4000E4B18784FF47A73B3FBF0F30C4A1068D0
:1004B400B0FBF3F000F094F868B90F2C01D90120D7
:1004C4000AE0002221464FF0FF3000F043F8054BCC
:1004D4001C60002000E0012010BD00BF04000020CB
:1004E400000000200800002008B5074A136843F004
:1004F40010031360032000F01BF80020FFF7CEFF69
:10050400FFF756FF002008BD00200240034A11688F
:10051400034B1B780B441360704700BFB0050020E9
:1005240004000020014B1868704700BFB00500208C
:10053400074AD36823F4E0631B041B0C000200F495
:10054400E060034343F0BF6343F40033D360704778
:1005540000ED00E000B5194BDB68C3F30223C3F1DF
:10056400070CBCF1040F28BF4FF0040C03F1040E78
:10057400BEF1060F18D9033B4FF0FF3E0EFA0CFCF8
:1005840021EA0C0199400EFA03F322EA030319430A
:1005940000280BDB0901C9B200F1604000F561409D
:1005A40080F800135DF804FB0023E5E700F00F007A
:1005B4000901C9B2024B1954F4E700BF00ED00E091
:1005C40014ED00E0002807DB00F01F0240090123BE
:1005D4009340024A42F82030704700BF00E100E037
:1005E4000138B0F1807F0BD24FF0E0235861054A07
:1005F400F02182F823100020986107221A617047C5
:100604000120704700ED00E070B582B00024A446DC
:10061400B0E0874DAA4210D007D9864DAA420CD02B
:1006240005F58035AA4208D013E0A5F58015AA4245
:1006340003D005F57025AA4207D18A68002A62D042
:10064400012A5BD04361082403E0A5F58015AA4282
:10065400F3D0BEF1FF0F58D80646BEF1FF0F56D8AF
:100664004FEA8C0233680F25954023EA050304FA08
:1006740002F2134333604B6813F0805F78D06E4B03
:100684009A6942F001029A619B6903F001030193A4
:10069400019B4FEA9C02951C684B53F825600CF0B3
:1006A40003039D000F23AB4026EA0306644B9842E4
:1006B40033D003F58063984200F0988003F580639B
:1006C400984200F0958003F58063984200F0928090
:1006D40003F58063984200F08F8003F580639842AD
:1006E40019D006231AE0CC68B3E7CC680434B0E729
:1006F400CC680834ADE7CC680C34AAE7036108245D
:10070400A7E70024A5E70424A3E7061DA5E7ACF1A9
:1007140008029200A6E7052300E00023AB40334320
:100724000232464D45F822304B6813F4803F65D0C1
:10073400444A136843EA0E0313604B6813F4003F02
:1007440062D0404A536843EA0E0353604B6813F483
:10075400801F5FD03B4A936843EA0E0393604B6863
:1007640013F4001F5CD0374AD36843EA0E03D36006
:100774000CF1010C0A6832FA0CF357D0012303FA86
:100784000CF302EA030E33EA0202F1D14A68122A98
:100794003FF63FAF122A3FF65CAF01A555F822F0B1
:1007A4003F060008EB060008F506000807070008E6
:1007B40057060008570600085706000857060008A1
:1007C4005706000857060008570600085706000891
:1007D4005706000857060008570600085706000881
:1007E40057060008EF060008FB060008012395E7FA
:1007F400022393E7032391E704238FE7114A136845
:1008040023EA0E03136098E70E4A536823EA0E03A3
:1008140053609BE70B4A936823EA0E0393609EE7B9
:10082400084AD36823EA0E03D360A1E702B070BD7F
:1008340000002210000031100010024000000140AE
:1008440000080140000401400AB101617047090435
:1008540001617047C36801EA030221EA030141EA26
:10086400024101617047704708B5054B5B6903425B
:1008740000D108BD024B5861FFF7F5FFF9E700BF4F
:100884000004014038B512F4804F44D00468B4F831
:1008940050309BB291F800C003EBCC03023304EB5D
:1008A4004303B3F80044C4F309048B69A34228D377
:1008B4001B1B8B618B697BB9056835F82C309BB2A7
:1008C40023F4804323F0700383F4005343F4004380
:1008D40043F0800325F82C3012F0400F0ED002684C
:1008E4000D7832F825309BB223F4E04323F07003F3
:1008F40043F4004343F0C00322F8253024B92046D2
:1009040038BD00238B61D5E723460A89496900680D
:1009140002F0C3FAF3E70468B4F850309BB291F8DC
:1009240000C003EBCC03063304EB4303B3F80044E9
:10093400C4F309048B69A3422FD31B1B8B618B69FE
:100944007BB9056835F82C309BB223F4804323F03F
:10095400700383F4005343F4004343F0800325F809
:100964002C3012F0400F0FD1026891F800C032F819
:100974002C309BB223F4E04323F0700343F4004390
:1009840043F0C00322F82C30002CB8D023464A8907
:100994004969006802F081FAB1E700238B61CEE770
:1009A40070B586B0002800F08580044690F8A9321E
:1009B400EBB1032384F8A932206801F0B7FA254685
:1009C40055F8106BEC460FCDACE80F002B68CCF853
:1009D4000030231D0ECB304601F098FA054658B17D
:1009E400022384F8A9320125284606B070BD80F898
:1009F400A83203F0C3F8DCE70021206801F0A0FA74
:100A04002B461AE05A1C02EB820104EBC1010120BF
:100A1400487002EB820104F8313003EB830104EBEC
:100A2400C101CB8602EB820C04EBCC0C00208CF8C9
:100A340003008863C8630864D3B261688B42E1D35E
:100A440016E005EB850304EBC303002283F8692158
:100A540083F8685183F86B21C3F87821C3F87C21AB
:100A640005EB850304EBC303C3F880210135EDB224
:100A7400A942E6D8254655F8106BEC460FCDACE8F4
:100A84000F002B68CCF80030231D0ECB304601F04C
:100A940059FA054620B1022384F8A9320125A3E7B7
:100AA400002384F82430012384F8A932206801F05B
:100AB4007FFD99E7012597E738B590F8A832012B17
:100AC40011D00446012580F8A852006801F025FAE7
:100AD4002946204603F053F9206801F067FD002001
:100AE40084F8A80238BD0220FCE770B505460C4620
:100AF400164612F0400F00F00D810268B2F8503033
:100B04009BB2097803EBC103023302EB4303B3F84E
:100B14000024C2F30902A369934252D99B1AA36128
:100B2400A369002B6AD16378002B4DD12B68B3F8ED
:100B3400502092B2134403EB0111B1F804349BB278
:100B440023F4F8439BB2A1F80434B1F804346FEAF7
:100B540043436FEA53439BB2A1F804342B68627891
:100B6400002A3ED1B3F8502092B21344227803EB0A
:100B74000213B3F80C2492B222F4F84292B2A3F80E
:100B84000C24B3F80C246FEA42426FEA524292B248
:100B9400A3F80C242178284603F024F816F4804F97
:100BA40041D02A68217832F821309BB223F4E04303
:100BB40023F0700343F4404343F0800322F82130D0
:100BC40031E00023A361ABE7012BC7D12B68B3F855
:100BD400502092B2134403EB01110023A1F8043412
:100BE400BCE7012AD6D1B3F8502092B2134422783C
:100BF40003EB02130022A3F80C24CBE716F4804F76
:100C04000DD0286830F821309BB223F4E04323F060
:100C1400700343F4404343F0800320F8213094F8F8
:100C24002430012B12D02A68217832F821309BB26B
:100C340023F4E04323F0400383F0300343F4004300
:100C440043F0800322F82130002070BD636913440F
:100C54006361E3691344E361216A236999421FD301
:100C6400C91A21626278002A3FD12A68B2F850106A
:100C740089B20A44217802EB0112EBB9B2F80414E8
:100C840089B221F4F84189B2A2F80414B2F8041428
:100C94006FEA41416FEA514189B2A2F8041426E097
:100CA40021B9002384F824301346DBE7002384F8B9
:100CB400243023620B46D5E73E2B09D8590813F09C
:100CC400010F00D00131890289B2A2F804140EE0A8
:100CD400590913F01F0F00D101396FEAC1616FEA9E
:100CE400514189B2A2F8041401E0012A06D09BB252
:100CF40022896169286801F063FC94E72A68B2F8E4
:100D0400501089B20A44217802EB011299B2A2F878
:100D14000414ECE70268B2F850309BB2097803EB94
:100D2400C103063302EB4303B3F80024C2F3090200
:100D3400A369934253D39B1AA361A369002B6BD17C
:100D44006378002B4ED12B68B3F8502092B2134431
:100D540003EB0111B1F804349BB223F4F8439BB2C2
:100D6400A1F80434B1F804346FEA43436FEA5343FF
:100D74009BB2A1F804342B686278002A3FD1B3F8FF
:100D8400502092B21344227803EB0213B3F80C24DC
:100D940092B222F4F84292B2A3F80C24B3F80C24D1
:100DA4006FEA42426FEA524292B2A3F80C242178CD
:100DB400284602F017FF16F4804F7FF434AF2A68F8
:100DC400217832F821309BB223F4E04323F07003FE
:100DD40043F4404343F0800322F8213023E7002307
:100DE400A361AAE7012BC6D12B68B3F8502092B2B5
:100DF400134403EB01110023A1F80434BBE7012AD7
:100E0400D5D1B3F8502092B21344227803EB0213E5
:100E14000022A3F80C24CAE716F4804F0DD12868E9
:100E240030F821309BB223F4E04323F0700343F401
:100E3400404343F0800320F8213094F82430012B00
:100E44007FF4F1AE636913446361E3691344E361BE
:100E5400216A236999421FD3C91A21622A686178D9
:100E640000293ED1B2F8501089B20A44217802EB2D
:100E74000112EBB9B2F80C1489B221F4F84189B229
:100E8400A2F80C14B2F80C146FEA41416FEA514114
:100E940089B2A2F80C1426E021B9002384F8243086
:100EA4001346DBE70023236284F824300B46D5E79E
:100EB4003E2B09D8590813F0010F00D001318902E3
:100EC40089B2A2F80C140EE0590913F01F0F00D1D7
:100ED40001396FEAC1616FEA514189B2A2F80C1479
:100EE40001E0012906D09BB262896169286801F09A
:100EF40067FB98E6B2F8501089B20A44217802EBF5
:100F0400011299B2A2F80C14EDE72DE9F04105465F
:100F14002868B0F8443013F4004F00F00F82B0F8A2
:100F24004440A3B214F00F0440F0D88013F0100F23
:100F340061D003889AB213F4006F40F0938012F4E6
:100F4400004FE5D0038823F070031B051B0D43F00D
:100F5400800303802868B0F850309BB295F868216C
:100F640003EBC203063300EB4303B3F80034C3F3CB
:100F74000903C5F884318BB1D5F87C1171B1B5F88A
:100F84006E2101F08AFFD5F88421D5F87C31134411
:100F9400C5F87C310021284602F018FE2B681A8817
:100FA40012F4006FB4D1B3F8502092B21344D5F8C0
:100FB4007821002A79D1B3F80C2492B222F4F842B1
:100FC40092B2A3F80C24B3F80C246FEA42426FEAFD
:100FD400524292B2A3F80C242A6813889BB223F4D9
:100FE400804323F0700383F4405343F4004343F0FD
:100FF400800313808CE703889BB223F4E14323F03E
:1010040070036FEA43436FEA53439BB203802A6839
:10101400B2F850309BB295F8281003EBC1030233A9
:1010240002EB4303B3F80034C3F309036B64EA6BC4
:101034001344EB630021284602F0D4FD95F82430D4
:10104400002B3FF465AF2B6C002B7FF461AF95F858
:1010540024302A6843F08003A2F84C30002385F83A
:10106400243055E7B0F850309BB295F8682103EB73
:10107400C203063300EB4303B3F80034C3F309039C
:10108400C5F88431B5F86E2105F52C7101F005FF22
:101094002A68138823F070031B051B0D43F080039B
:1010A4001380284602F08AFD32E73E2A09D8510807
:1010B40012F0010F00D001318A0292B2A3F80C247D
:1010C4008AE7510912F01F0F00D101396FEAC1629A
:1010D4006FEA524292B2A3F80C247DE730F8243030
:1010E4009EB213F4004F4FD116F0800F3FF410AFAF
:1010F400621C02EB820105EBC101286830F8243040
:101104009BB223F4E14323F070036FEA43436FEA95
:1011140053439BB220F82430CB78032B07D033B150
:10112400022B40F0068116F4807F40F0028128688B
:10113400B0F850309BB2621C02EB820215F83260A8
:1011440003EBC603023300EB4303B3F80034C3F3E9
:10115400090304EB840205EBC202126C9A4240F2CA
:10116400D48004EB840705EBC707D21A3A6404EB76
:10117400840205EBC202126C002A40F0CD80314695
:10118400284602F02FFDC3E630F8243023F0700324
:101194001B051B0D43F0800320F8243004EB84016D
:1011A400C90001F5B47105EB010804EB840305EBF8
:1011B400C30393F87431002B42D12868B0F850303F
:1011C4009BB204EB840205EBC20292F8682103EBA4
:1011D400C203063300EB4303B3F80074C7F30907F3
:1011E40017BB04EB840305EBC303D3F884213A440F
:1011F400C3F88421D3F87C213A44C3F87C21D3F882
:1012040080313BB104EB840305EBC303D3F878319D
:101214009F4275D204EB840305EBC30393F8681172
:10122400284602F0D3FC5FE704EB840105EBC1011F
:101234003B46B1F86E21D1F87C1101F02EFED0E7C7
:1012440004EB840305EBC30393F86B31022B35D015
:10125400296804EB840205EBC20292F8680131F8B4
:1012640020309BB223F4E04323F0700343F40043A3
:1012740043F0C00321F82030286892F8682130F840
:10128400223013F4804F20D0B0F850309BB203EBDF
:10129400C203023300EB4303B3F80074C7F3090736
:1012A400002F9ED004EB840105EBC1013B46B1F84D
:1012B4007021D1F87C1101F0F0FD92E732464146ED
:1012C4002846FFF7DFFA07468BE7B0F850309BB2A9
:1012D40003EBC203063300EB4303B3F80074C7F314
:1012E4000907002F3FF47DAF04EB840105EBC10136
:1012F4003B46B1F87221D1F87C1101F0CEFD70E7C4
:101304004146286801F070F9EEE604EB840205EB2F
:10131400C202002717642AE704EB840205EBC20229
:10132400D66B1E44D663546C2344536401F05CF9B9
:10133400EEE532462846FFF7D8FBE9E50020BDE894
:10134400F08190F8A832012B0DD010B5044601238A
:1013540080F8A83280F82410006801F021F90020F8
:1013640084F8A80210BD0220704710B584B004466A
:10137400006801F01FF910F4004F47D1206801F014
:1013840019F910F4806F45D1206801F013F910F4B5
:10139400804F08D02268B2F844309BB223F48043D3
:1013A4009BB2A2F84430206801F004F910F4005F05
:1013B40008D02268B2F844309BB223F400539BB2A5
:1013C400A2F84430206801F0F5F810F4805F32D1BF
:1013D400206801F0EFF810F4006F78D1206801F074
:1013E400E9F810F4007F40F09D80206801F0E2F8F5
:1013F40010F4807F08D02268B2F844309BB223F402
:1014040080739BB2A2F8443004B010BD2046FFF7AD
:101414007CFDB3E72268B2F844309BB223F48063C6
:101424009BB2A2F84430204602F0EDFB0021204696
:10143400FFF787FFA8E72268B2F840309BB223F099
:1014440004039BB2A2F840302268B2F840309BB249
:1014540023F008039BB2A2F84030204602F0F6FBCA
:101464002268B2F844309BB223F480539BB2A2F8B2
:101474004430ADE7226832F8231004AA02EB430299
:1014840022F8101C0133DBB2072BF3D92268B2F81F
:1014940040309BB243F00103A2F840302268B2F816
:1014A40040309BB223F001039BB2A2F84030236882
:1014B400B3F8442012F4806FF9D0B3F8442092B208
:1014C40022F4806292B2A3F8442000230BE00023AC
:1014D400DAE7226804A901EB430131F8101C22F871
:1014E40023100133DBB2072BF3D92268B2F8403062
:1014F4009BB243F00803A2F840302268B2F84430AB
:101504009BB223F400639BB2A2F844302268B2F881
:1015140040309BB243F00403A2F84030204602F06E
:1015240085FB5BE72268B2F844309BB223F4007376
:101534009BB2A2F84430204602F05FFB55E710B599
:1015440004468C4611F0800F2AD101F0070000EB0D
:101554008001C90001F5B47E04EB0E0100EB8000AC
:1015640004EBC0004FF0000E80F869E10CF0070CAA
:1015740081F800C00A61CB704A780AB1A1F80EC0A4
:10158400022B19D094F8A832012B18D0012384F827
:10159400A832206800F0E7FC002084F8A80210BDFF
:1015A40001F00700013000EB800104EBC1014FF0B2
:1015B400010E81F801E0D9E700230B71E2E7022074
:1015C400EDE710B504460B4611F0800F1FD101F072
:1015D400070202EB8201C90001F5B471014402EB78
:1015E400820200EBC202002082F8690103F00703C3
:1015F4000B7094F8A832012B13D0012384F8A8327D
:10160400206800F06CFE002084F8A80210BD01F0F0
:101614000702013202EB820100EBC1010120487094
:10162400E4E70220F2E710B501F0070404EB8401BB
:10163400C90001F5B471014404EB840C00EBCC0C3B
:10164400CCF87C21CCF880310023CCF884318CF8A0
:1016540069318CF8684124B9006800F0C5FF0020A6
:1016640010BD006800F0C0FFF9E710B501F00704F1
:1016740004F1010C0CEB8C0100EBC10104EB840EB2
:1016840000EBCE0ECEF83C20CEF8403001228EF88E
:101694004C20CEF848300023CEF844304A700CEB8E
:1016A4008C0C00F83C4024B9006800F09DFF002039
:1016B40010BD006800F098FFF9E738B501F00705A0
:1016C4004268954231D804460B4611F0800F1ED172
:1016D40001EB8101C90001F5B471014403EB8303FB
:1016E40000EBC303002283F8692101238B700D7082
:1016F40094F8A832012B1AD0012384F8A832206868
:1017040000F0D8FE5DB1002084F8A80238BD6B1C3F
:1017140003EB830100EBC10101224A70E5E704F504
:101724002C71206800F04AFFEDE70120EEE702206B
:10173400ECE70B4601F00F014268914230D810B536
:10174400044613F0800F21D103F0070202EB82015B
:10175400C90001F5B471014402EB820200EBC2023C
:10176400002082F8690100228A7003F007030B70DD
:1017740094F8A832012B15D0012384F8A8322068EC
:1017840000F0BDFE002084F8A80210BD03F007029B
:10179400013202EB820100EBC10101204870E2E753
:1017A400012070470220F0E711F0800F0BD001F008
:1017B4000701013101EB810100EBC10152B90A7348
:1017C400CB800020704701EB8101C90001F5B471A1
:1017D4000144F3E701220A730B811B0C4B81F0E7F0
:1017E40082B0084B1B68084AA2FB03235B0A00FB78
:1017F40003F3019300BF019B5A1E0192002BF9D100
:1018040002B0704700000020D34D6210002800F0A1
:10181400F18170B582B00446036813F0010F2CD037
:10182400994B5B6803F00C03042B1DD0964B5B684B
:1018340003F00C03082B12D06368B3F5803F41D04A
:10184400002B55D103F1804303F504331A6822F4C5
:1018540080321A601A6822F480221A6037E08A4BB8
:101864005B6813F4803FE7D0874B1B6813F4003F99
:1018740003D06368002B00F0BF81236813F0020FCC
:1018840075D0814B5B6813F00C0F5FD07E4B5B68A7
:1018940003F00C03082B54D02369002B00F08A803A
:1018A4007A4B01221A60FEF73DFE0546764B1B6813
:1018B40013F0020F75D1FEF735FE401B0228F5D94F
:1018C40003209EE1704A136843F480331360636815
:1018D40043B3FEF727FE05466B4B1B6813F4003F2A
:1018E400CBD1FEF71FFE401B6428F5D9032088E105
:1018F400B3F5A02F09D0644B1A6822F480321A6021
:101904001A6822F480221A60E1E703F18043A3F508
:101914003C331A6842F480221A601A6842F4803216
:101924001A60D4E7FEF7FEFD0546574B1B6813F417
:10193400003FA2D0FEF7F6FD401B6428F5D9032032
:101944005FE1514B5B6813F4803FA5D14E4B1B689C
:1019540013F0020F03D02369012B40F04F814A4A50
:10196400136823F0F803616943EAC1031360236831
:1019740013F0080F33D0A369002B5CD0434B012232
:10198400C3F88024FEF7CEFD05463F4B5B6A13F097
:10199400020F21D1FEF7C6FD401B0228F5D9032012
:1019A4002FE1394A136823F0F803616943EAC1035C
:1019B4001360DCE7354B00221A60FEF7B3FD0546E1
:1019C400314B1B6813F0020FD1D0FEF7ABFD401B67
:1019D4000228F5D9032014E10120FFF701FF236851
:1019E40013F0040F00F09680274BDB6913F0805F3F
:1019F40034D1254BDA6942F08052DA61DB6903F0B5
:101A040080530193019B0125214B1B6813F4807FB4
:101A140026D0E368012B3DD0002B53D103F1804342
:101A240003F504331A6A22F001021A621A6A22F0D8
:101A340004021A6233E0154B0022C3F88024FEF737
:101A440071FD0546104B5B6A13F0020FC7D0FEF719
:101A540069FD401B0228F5D90320D2E00025D3E715
:101A64000B4A136843F480731360FEF75BFD06466C
:101A7400074B1B6813F4807FCBD1FEF753FD801B0B
:101A84006428F5D90320BCE0001002400000424263
:101A9400007000405F4A136A43F001031362E36875
:101AA40033B3FEF73FFD06465A4B1B6A13F0020F91
:101AB4002FD1FEF737FD801B41F288339842F3D9CA
:101AC40003209EE0052B09D0524B1A6A22F0010232
:101AD4001A621A6A22F004021A62E0E74D4B1A6A8B
:101AE40042F004021A621A6A42F001021A62D6E74C
:101AF400FEF718FD0646474B1B6A13F0020F08D089
:101B0400FEF710FD801B41F288339842F3D903207D
:101B140077E0E5B9E369002B72D03E4A526802F0DF
:101B24000C02082A56D0022B17D03B4B00221A660F
:101B3400FEF7F8FC0446374B1B6813F0007F47D0D0
:101B4400FEF7F0FC001B0228F5D9032059E0314AC6
:101B5400D36923F08053D361DCE72F4B00221A664C
:101B6400FEF7E0FC05462B4B1B6813F0007F06D004
:101B7400FEF7D8FC401B0228F5D9032041E0236A74
:101B8400B3F5803F1AD023494B6823F47413226AB7
:101B9400606A024313434B601F4B01221A66FEF72F
:101BA400C1FC04461B4B1B6813F0007F0ED1FEF7EB
:101BB400B9FC001B0228F5D9032022E0154A53681A
:101BC40023F40033A1680B435360DCE7002018E0E2
:101BD400002016E0012B16D00E4B5B6803F4803115
:101BE400226A914211D103F47013626A93420ED1B6
:101BF400002006E001207047012002E0012000E0FF
:101C0400002002B070BD0120FBE70120F9E70120AC
:101C1400F7E700BF001002400000424286B0164BB6
:101C24000FCB0DF1180C0CE90F0040F20123ADF8B5
:101C34000430124B5B6803F00C02082A02D01048EF
:101C440006B07047C3F38342624412F8100C13F4D5
:101C5400803F0CD0094B5B68C3F34043634413F8E3
:101C6400143C074A02FB00F0B0FBF3F0E8E7054B35
:101C740003FB00F0E4E700BF783F000800100240D7
:101C840000127A0000093D00002800F0A08070B521
:101C94000D460446524B1B6803F007038B420BD2DC
:101CA4004F4A136823F007030B431360136803F0D0
:101CB40007038B4240F08D80236813F0020F17D086
:101CC40013F0040F04D0474A536843F4E0635360AD
:101CD400236813F0080F04D0424A536843F4605356
:101CE4005360404A536823F0F003A1680B435360E8
:101CF400236813F0010F31D06368012B20D0022B2D
:101D040025D0384A126812F0020F64D035494A6867
:101D140022F0030213434B60FEF704FC0646314BEA
:101D24005B6803F00C036268B3EB820F16D0FEF716
:101D3400F9FB801B41F288339842F0D9032045E037
:101D4400284A126812F4003FE0D101203EE0254AFF
:101D5400126812F0007FD9D1012037E0204B1B68B4
:101D640003F00703AB420AD91D4A136823F00703A3
:101D74002B431360136803F00703AB422DD1236890
:101D840013F0040F06D0174A536823F4E063E168A4
:101D94000B435360236813F0080F07D0114A5368AC
:101DA40023F46053216943EAC1035360FFF736FF0C
:101DB4000C4B5B68C3F303130B4AD35CD8400B4B47
:101DC40018600B4B1868FEF769FB002070BD0120FA
:101DD40070470120FAE70120F8E70120F6E700BF89
:101DE4000020024000100240683F0008000000206C
:101DF4000800002070B582B00446036813F0010F98
:101E040036D03F4BDB6913F0805F49D13C4BDA6934
:101E140042F08052DA61DB6903F080530193019B45
:101E24000125384B1B6813F4807F3BD0344B1B6A6D
:101E340013F4407313D0626802F440729A420ED0D5
:101E44002F4A136A23F440702F490126C1F84064D5
:101E54000026C1F84064106213F0010F36D1284AFD
:101E6400136A23F4407361680B431362002D3ED15F
:101E7400236813F0020F06D0214A536823F4404329
:101E8400A1680B435360236813F0100F34D01C4A2D
:101E9400536823F4800361690B43536000202CE0F2
:101EA4000025BEE7174A136843F480731360FEF7F6
:101EB40039FB0646134B1B6813F4807FB6D1FEF73B
:101EC40031FB801B6428F5D9032016E0FEF72AFBBA
:101ED40006460B4B1B6A13F0020FC0D1FEF722FB20
:101EE400801B41F288339842F3D9032005E0D3697B
:101EF40023F08053D361BBE7002002B070BD00BF64
:101F040000100240007000400000424284B001A86A
:101F140080E80E00002004B0704703460020A3F8B8
:101F240044004FF43F42A3F840207047B0F84030DB
:101F340023F47C535B045B0CA0F840300020704712
:101F44000020704784B0844601A880E80E00012375
:101F5400ACF840300020ACF84000ACF84400ACF8D9
:101F6400500004B0704710B5034691F800C030F833
:101F74002C2092B222F4EC4222F0700292B2C87881
:101F8400032861D8DFE800F0555C0258002048F2CD
:101F9400800E42EA0E0223F82C2091F800C033F898
:101FA4002C2092B222F4E04222F070024CEA0202A7
:101FB40042EA0E0223F82C200A7B002A40F0C48057
:101FC4004A78002A51D0B3F8502092B21A440C78BF
:101FD40002EB0412B1F806C04FEA5C0C4FEA4C0C59
:101FE400A2F800C40C7833F8242012F0400F0CD06F
:101FF40033F8242092B222F4E04222F0700242F438
:10200400004242F0C00223F82420CA78012A1DD0DD
:10201400097833F8212092B222F4E04222F04002FF
:1020240082F0200242F4004242F0800223F8212090
:102034006AE042F40072AAE742F4C0620020A6E714
:1020440042F480620020A2E70120A0E7097833F877
:10205400212092B222F4E04222F0400242F40042F3
:1020640042F0800223F821204EE0B3F8502092B2CF
:102074001A440C7802EB0412B1F806C04FEA5C0C67
:102084004FEA4C0CA2F808C4B3F8502092B21A4498
:102094000C7802EB04120C69BCBBB2F80CC41FFA36
:1020A4008CFC2CF4F84C1FFA8CFCA2F80CC4B2F88B
:1020B4000CC46FEA4C4C6FEA5C4C1FFA8CFCA2F81F
:1020C4000CC40C7833F8242012F4804F0CD033F86D
:1020D400242092B222F4E04222F0700242F4404200
:1020E40042F0800223F82420097833F8212092B2A8
:1020F40022F4804222F0700282F4405242F4004200
:1021040042F0800223F8212010BD3E2C0DD84FEA66
:10211400540C14F0010F01D00CF1010C4FEA8C2C7B
:102124001FFA8CFCA2F80CC4CBE74FEA541C14F041
:102134001F0F01D10CF1FF3C6FEACC646FEA5444E9
:10214400A4B2A2F80C44BCE791F800C033F82C20E8
:1021540092B222F4E04222F0700242F4014242F0D0
:10216400800223F82C20B3F8502092B21A4491F83C
:1021740000C002EB0C12B1F808C04FEA5C0C4FEA45
:102184004C0CA2F800C4B3F8502092B21A4491F84F
:1021940000C002EB0C12B1F80AC04FEA5C0C4FEA23
:1021A4004C0CA2F808C44A78002A41D10C7833F8C0
:1021B400242012F4804F0CD033F8242092B222F45D
:1021C400E04222F0700242F4404242F0800223F8DE
:1021D40024200C7833F8242012F0400F0CD033F86C
:1021E400242092B222F4E04222F0700242F400422F
:1021F40042F0C00223F8242091F800C033F82C20C8
:1022040092B222F4804222F0700282F4405248F2E8
:102214008004224323F82C20097833F8212092B239
:1022240022F4E04222F04002224323F821206BE70B
:102234000C7833F8242012F4804F0CD033F8242087
:1022440092B222F4E04222F0700242F4404242F0A0
:10225400800223F824200C7833F8242012F0400F55
:102264000CD033F8242092B222F4E04222F070021F
:1022740042F4004242F0C00223F82420CA78012A22
:102284001ED00C7833F8242092B222F4E04222F0DB
:10229400400282F0200242F4004242F0800223F81D
:1022A4002420097833F8212092B222F4804222F0CB
:1022B400700242F4004242F0800223F8212023E716
:1022C4000C7833F8242092B222F4E04222F0400247
:1022D40042F4004242F0800223F82420E1E70B7B21
:1022E400002B46D14B7813B30A7830F8223013F020
:1022F400400F0CD030F822309BB223F4E04323F09B
:10230400700343F4004343F0C00320F822300A78FA
:1023140030F822309BB223F4E04323F0400343F42B
:10232400004343F0800320F82230002070470A78ED
:1023340030F8223013F4804F0CD030F822309BB2A6
:1023440023F4E04323F0700343F4404343F0800359
:1023540020F822300A7830F822309BB223F48043EC
:1023640023F0700343F4004343F0800320F8223049
:10237400DBE74B78002B4ED10A7830F8223013F487
:10238400804F0CD030F822309BB223F4E04323F08A
:10239400700343F4404343F0800320F822300A786A
:1023A40030F8223013F0400F0CD030F822309BB2BA
:1023B40023F4E04323F0700343F4004343F0C003E9
:1023C40020F822300A7830F822309BB223F4E0431C
:1023D40023F0700343F4004343F0C00320F8223099
:1023E4000B7830F8232092B222F4804222F070025B
:1023F40048F2800C42EA0C0220F823200A7830F8D4
:1024040022309BB223F4E04323F0400343EA0C035D
:1024140020F8223089E70A7830F8223013F4804F0C
:102424000CD030F822309BB223F4E04323F0700345
:1024340043F4404343F0800320F822300A7830F814
:10244400223013F0400F0CD030F822309BB223F42A
:10245400E04323F0700343F4004343F0C00320F847
:1024640022300A7830F822309BB223F4E04323F080
:10247400700343F4404343F0800320F822300B7888
:1024840030F8232092B222F4E04222F0400248F2D3
:10249400800C42EA0C0220F823200A7830F822301B
:1024A4009BB223F4804323F0700343EA0C0320F827
:1024B40022303AE74B788BB10A7830F822309BB25D
:1024C40023F4E04323F0400383F0100343F4004378
:1024D40043F0800320F82230002070470A7830F857
:1024E40022309BB223F4804323F0700383F480539F
:1024F40043F4004343F0800320F82230ECE70B7BE5
:10250400002B4BD14B7833B30A7830F8223013F0D8
:10251400400F0CD030F822309BB223F4E04323F078
:10252400700343F4004343F0C00320F82230CB7817
:10253400012B33D00A7830F822309BB223F4E043E5
:1025440023F0400383F0200343F4004343F080036B
:1025540020F8223022E00A7830F8223013F4804F39
:102564000CD030F822309BB223F4E04323F0700304
:1025740043F4404343F0800320F822300A7830F8D3
:1025840022309BB223F4804323F0700383F440533E
:1025940043F4004343F0800320F8223000207047C6
:1025A40011B98023A0F84C300020704700207047F8
:1025B40000207047B0F8440080B270470020704794
:1025C40010B45C1C640800EB420202F5806207E070
:1025D4000B78487843EA002322F8043B0231013C9B
:1025E400002CF5D110BC704770B505460C464B78ED
:1025F400012B37D00A7B002A40F026838B690A69B5
:10260400934240F204839B1A8B61B5F850309BB21D
:102614002B44217803EB0113002A40F0FC82B3F829
:102624000C2492B222F4F84292B2A3F80C24B3F828
:102634000C246FEA42426FEA524292B2A3F80C248D
:10264400227835F822309BB223F4804323F07003C0
:1026540083F4405343F4004343F0800325F82230CD
:10266400002070BD8E690A69964200D91646237B04
:10267400002B39D0E378022B58D0227835F8223059
:102684009BB223F4E04323F0700343F4014343F08B
:10269400800325F82230236A9B1B2362237835F8B4
:1026A400232012F0400F00F026826278002A40F0C6
:1026B400CA81B5F8502092B22A4402EB0313002ECB
:1026C40040F0A881B3F80C2492B222F4F84292B2FA
:1026D400A3F80C24B3F80C246FEA42426FEA524286
:1026E40092B2A3F80C24B0E1B6B23346E288616931
:1026F4002846FFF765FFB5F850309BB22B4422788B
:1027040003EB0213A3F80464227835F822309BB259
:1027140023F4E04323F0400383F0300343F4004305
:1027240043F0800325F8223000209AE7236A9A4276
:1027340080F05281227835F822309BB223F4E043B2
:1027440023F0700343F4014343F0800325F822305F
:10275400236A9B1B2362237835F8232012F0400F51
:1027640000F09D8062788ABBB5F8502092B22A446A
:1027740002EB03138EB9B3F80C2492B222F4F8429C
:1027840092B2A3F80C24B3F80C246FEA42426FEA25
:10279400524292B2A3F80C241AE03E2E09D87208D1
:1027A40016F0010F00D00132920292B2A3F80C2469
:1027B4000EE0720916F01F0F00D1013A6FEAC262EF
:1027C4006FEA524292B2A3F80C2401E0012A2BD002
:1027D400B3B2628961692846FFF7F2FE6369334444
:1027E4006361236A2269934228D99B1B236263781D
:1027F400002B40D1B5F850309BB22B44227803EB28
:102804000213FEB9B3F8042492B222F4F84292B24D
:10281400A3F80424B3F804246FEA42426FEA524254
:1028240092B2A3F8042428E0B5F8502092B22A44C6
:1028340002EB0313B2B2A3F80C24C9E7002222620C
:102844001E46D4E73E2E09D8720816F0010F00D0B8
:102854000132920292B2A3F804240EE0720916F037
:102864001F0F00D1013A6FEAC2626FEA524292B27C
:10287400A3F8042401E0012B06D0B3B222896169D4
:102884002846FFF79DFE3FE7B5F850309BB22B4436
:10289400227803EB0213B2B2A3F80424EDE76278C2
:1028A4008ABBB5F8502092B22A4402EB03138EB9C6
:1028B400B3F8042492B222F4F84292B2A3F80424A6
:1028C400B3F804246FEA42426FEA524292B2A3F888
:1028D40004241AE03E2E09D8720816F0010F00D025
:1028E4000132920292B2A3F804240EE0720916F0A7
:1028F4001F0F00D1013A6FEAC2626FEA524292B2EC
:10290400A3F8042401E0012A2BD0B3B2228961691F
:102914002846FFF755FE636933446361236A2269DD
:10292400934228D99B1B23626378002B40D1B5F8CE
:1029340050309BB22B44227803EB0213FEB9B3F858
:102944000C2492B222F4F84292B2A3F80C24B3F805
:102954000C246FEA42426FEA524292B2A3F80C246A
:1029640028E0B5F8502092B22A4402EB0313B2B225
:10297400A3F80424C9E7002222621E46D4E73E2EAF
:1029840009D8720816F0010F00D00132920292B2F7
:10299400A3F80C240EE0720916F01F0F00D1013ABF
:1029A4006FEAC2626FEA524292B2A3F80C2401E0C9
:1029B400012B06D0B3B2628961692846FFF700FE95
:1029C400A2E6B5F850309BB22B44227803EB0213F5
:1029D400B2B2A3F80C24EDE7217835F8212092B2A5
:1029E40022F4E24222F0700242F4004242F08002F9
:1029F40025F82120B5F8502092B22A44217802EB20
:102A040001129BB2A2F80434228961692846FFF7B7
:102A1400D7FD79E63E2E09D8720816F0010F00D0D2
:102A24000132920292B2A3F80C240EE0720916F05D
:102A34001F0F00D1013A6FEAC2626FEA524292B2AA
:102A4400A3F80C2401E0012A26D0B3B2628961699B
:102A54002846FFF7B5FD636933446361236A22693D
:102A6400934223D99B1B2362002E3FF44DAE63781F
:102A74006BBBB5F850309BB22B44227803EB0213A6
:102A84003E2E17D8720816F0010F00D001329202C0
:102A940092B2A3F804241CE0B5F8502092B22A4460
:102AA40002EB0313B2B2A3F80C24CEE70022226295
:102AB4001E46D9E7720916F01F0F00D1013A6FEADA
:102AC400C2626FEA524292B2A3F8042401E0012BDD
:102AD40006D0B3B2228961692846FFF771FD13E677
:102AE400B5F850309BB22B44227803EB0213B2B2F8
:102AF400A3F80424EDE762788ABBB5F8502092B2BB
:102B04002A4402EB03138EB9B3F8042492B222F4DC
:102B1400F84292B2A3F80424B3F804246FEA4242C0
:102B24006FEA524292B2A3F804241AE03E2E09D866
:102B3400720816F0010F00D00132920292B2A3F88B
:102B440004240EE0720916F01F0F00D1013A6FEA57
:102B5400C2626FEA524292B2A3F8042401E0012A4D
:102B640026D0B3B2228961692846FFF729FD63693B
:102B740033446361236A2269934223D99B1B2362F2
:102B8400002E3FF4C1AD63786BBBB5F850309BB2F7
:102B94002B44227803EB02133E2E17D8720816F04A
:102BA400010F00D00132920292B2A3F80C241CE06F
:102BB400B5F8502092B22A4402EB0313B2B2A3F840
:102BC4000424CEE7002222621E46D9E7720916F0D9
:102BD4001F0F00D1013A6FEAC2626FEA524292B209
:102BE400A3F80C2401E0012B06D0B3B26289616919
:102BF4002846FFF7E5FC87E5B5F850309BB22B4437
:102C0400227803EB0213B2B2A3F80C24EDE70022FE
:102C14008A611A46F9E43E2A09D8510812F0010FD4
:102C240000D00131890289B2A3F80C1408E55109D6
:102C340012F01F0F00D101396FEAC1616FEA5141EF
:102C440089B2A3F80C14FBE4CA78022A45D0012AFD
:102C540040F0208189692269914240F2D480891A26
:102C6400A161D3B9B5F850309BB22B44217803EB62
:102C74000113002A40F0CB80B3F8041489B221F484
:102C8400F84189B2A3F80414B3F804146FEA41417B
:102C94006FEA514189B2A3F804146378002B40F021
:102CA400EA80B5F850309BB22B44217803EB011332
:102CB400002A40F0C580B3F80C2492B222F4F84202
:102CC40092B2A3F80C24B3F80C246FEA42426FEAE0
:102CD400524292B2A3F80C24B2E4CBB9B0F850300B
:102CE4009BB203440A7803EB02130A6972BBB3F87C
:102CF400042492B222F4F84292B2A3F80424B3F862
:102D040004246FEA42426FEA524292B2A3F80424C6
:102D14006378002B4CD1B5F850309BB22B44227809
:102D240003EB0213226952BBB3F80C2492B222F4CF
:102D3400F84292B2A3F80C24B3F80C246FEA42428E
:102D44006FEA524292B2A3F80C2433E03E2A09D827
:102D5400510812F0010F00D001318A0292B2A3F897
:102D64000424D5E7510912F01F0F00D101396FEA8D
:102D7400C1626FEA524292B2A3F80424C8E73E2A21
:102D840009D8510812F0010F00D001318A0292B221
:102D9400A3F80C240EE0510912F01F0F00D10139E1
:102DA4006FEAC1626FEA524292B2A3F80C2401E0C6
:102DB400012B1DD0E369002B3FF442AC227835F897
:102DC400221044F2400303EA01008B4302D000289E
:102DD4007FF436AC35F822309BB223F4E04323F081
:102DE400700343F4004343F0C00325F8223027E482
:102DF400B5F850309BB22B44227803EB0213228A9D
:102E0400A3F80C24D6E70022A2610A4629E73E2A49
:102E140009D8510812F0010F00D00131890289B29A
:102E2400A3F8041439E7510912F01F0F00D1013936
:102E34006FEAC1616FEA514189B2A3F804142CE727
:102E44003E2A0AD8510812F0010F00D001318A023B
:102E540092B2A3F80C24FFF7F3BB510912F01F0F31
:102E640000D101396FEAC1626FEA524292B2A3F80B
:102E74000C24FFF7E5BB012B7FF4E2ABB5F850302F
:102E84009BB22B44217803EB011392B2A3F80C24D8
:102E9400FFF7D6BB0120FFF7E4BB10B45C0800EBDE
:102EA400420000F5806007E030F8042B0A70C2F39A
:102EB40007224A700231013C002CF5D113F0010FB6
:102EC40001D003880B7010BC7047000022230380DC
:102ED4000048704790000020222303800048704778
:102EE400B40000202223038000487047F000002033
:102EF400D0F8B83200201873704700000A2303800A
:102F040000487047E400002070B582B0D0F8B85291
:102F14000023ADF806300C7814F0600425D0202C82
:102F240072D14B78023B092B1BD8DFE803F014095C
:102F34001A1A1A1A1A1A0F058B782B60002466E0E5
:102F44000122294600F022FD002460E04B881B0A80
:102F54006B6000245BE00122291D00F017FD0024B2
:102F640055E000F007FA022451E04E780B2E47D8C2
:102F7400DFE806F0064646464646154646462D3BDD
:102F840090F89C32032B03D000F0F4F902243EE0C5
:102F940002220DF1060100F0F9FC344637E04B88BB
:102FA4001B0A222B09D0212B0DD1CA88092A28BF3C
:102FB4000922184900F0EAFC29E0CA884A2A28BFF5
:102FC4004A221549F6E700F0D5F902241FE090F8EB
:102FD4009C32032B03D000F0CDF9022417E0012228
:102FE40005F1080100F0D2FC11E090F89C32032BAB
:102FF40002D18B78AB600AE000F0BCF9022406E051
:1030040000F0B8F9022402E000F0B4F902242046EA
:1030140002B070BDD80000200C00002010B504469A
:10302400812100F060FE0023E362D4F8B80220B1ED
:1030340000F0A4FE0023C4F8B832002010BD10B57F
:10304400044604230322812100F042FE0123E362AB
:10305400102000F08FFEC4F8B80218B100230373E7
:10306400184610BD0220FCE798B108B50346D0F815
:10307400B40210B10020C3F8B40209B1C3F8B0120D
:10308400012183F89C121A70184600F0E5FD002017
:1030940008BD0220704719B1C0F8B412002070476F
:1030A4000220704708B500F00BFE002008BD08B5EB
:1030B400D0F8B4322BB11B68984700B908BD022080
:1030C400FCE70220FAE708B5D0F8B4325B68984709
:1030D400002008BD38B5044600F52A75284600F0DE
:1030E40035F90123C4F89432B4F8AE32C4F89832F6
:1030F40094F8A81201F01F03012B0ED0022B11D05B
:103104002BB101F08001204600F0F5FD03E02946D3
:10311400204600F0C9FA002038BD2946204600F0B8
:10312400F7FAF8E72946204600F022FBF3E738B522
:1031340004460D4691BB1346D0F89422032A03D0CB
:10314400052A24D0084633E0D0F86011D0F8642171
:1031540091420DD9891AC0F860118A4206D98AB2FF
:103164001946204600F027FC284621E092B2F7E7F2
:10317400D0F8B4321B691BB190F89C22032A04D006
:10318400204600F020FC284612E09847F8E700218A
:10319400C0F8941200F0AFFD284609E0D0F8B4322C
:1031A4009B6933B190F89C22032A04D198470020EC
:1031B40038BD0220FCE70220FAE738B504460D4684
:1031C400002953D11346D0F89422022A0CD0042AA1
:1031D40000D01AB98021204600F08DFD94F8A03269
:1031E400012B3ED0284638BD016A426A91421BD861
:1031F400C169B1FBF2F302FB13132BB98A4203D862
:10320400D0F8983299421CD3D4F8B432DB681BB19D
:1032140094F89C22032A21D08021204600F06BFDE3
:10322400204600F0DBFBD9E78A1A026292B2194603
:1032340000F0B9FB00231A461946204600F092FD1F
:10324400CCE70022114600F0AEFB0021C4F898122E
:103254000B460A46204600F085FDBFE72046984706
:10326400DAE7002384F8A0322846BCE7D0F8B43269
:103274005B6933B190F89C22032A04D1984700205B
:10328400B1E70220AFE70220ADE770B50446402362
:103294000022114600F01CFD0125C4F858514026B7
:1032A400C4F86461334600228021204600F010FDFA
:1032B400A561666284F89C520023C4F8943263606A
:1032C400C4F8A432D4F8B8322BB1D4F8B4325B6861
:1032D400002120469847002070BD017400207047EB
:1032E40090F89C3280F89D32042380F89C320020B0
:1032F400704790F89C32042B01D00020704790F85E
:103304009D3280F89C32F8E708B590F89C32032B84
:1033140001D0002008BDD0F8B432DB69002BF8D00E
:103324009847F6E70346002002E00130C0B20133BB
:103334001A78002AF9D1704708B54B88012B00D0C0
:1033440008BDC0F8A43200F03EFBF9E70B78037027
:103354004B7843708B78CA7803EB022343800B7954
:103364004A7903EB022383808B79CA7903EB022326
:10337400C380704710B50446802100F0BCFC0021D6
:10338400204600F0B8FC10BD30B583B005460C46AD
:103394000023ADF806304A88130A013B062B00F2DD
:1033A400A480DFE803F004182CA2A2869300D0F8CE
:1033B400B0321B680DF10601007C9847BDF8062069
:1033C4001AB1E388002B40F09480E388002B00F0CE
:1033D4009A8003B030BD037C43B9D0F8B4329B6A01
:1033E4000DF10600984702234370E7E7D0F8B432A2
:1033F400DB6A0DF10600984702234370DEE7D2B280
:10340400052A52D8DFE802F003101D2A3744D0F809
:10341400B0325B6823B10DF10601007C9847CDE71B
:103424002146FFF7A7FFD4E7D0F8B0329B6823B159
:103434000DF10601007C9847C0E72146FFF79AFF8B
:10344400C7E7D0F8B032DB6823B10DF10601007C88
:103454009847B3E72146FFF78DFFBAE7D0F8B032BB
:103464001B6923B10DF10601007C9847A6E72146AC
:10347400FFF780FFADE7D0F8B0325B6923B10DF1FF
:103484000601007C984799E72146FFF773FFA0E700
:10349400D0F8B0329B6923B10DF10601007C984746
:1034A4008CE72146FFF766FF93E72146FFF762FFAB
:1034B4008FE7037C33B9D0F8B4325B6B0DF10600AF
:1034C40098477BE72146FFF755FF82E7037C43B922
:1034D400D0F8B4321B6B0DF10600984707234370F4
:1034E4006CE72146FFF746FF73E72146FFF742FFEB
:1034F4006FE79A4228BF1A46ADF8062001462846CF
:1035040000F044FA61E7284600F05DFA61E738B557
:1035140004468B88F3B9CB88E3B94B887F2B19D841
:1035240003F07F0590F89C32032B0CD080F89E5258
:10353400294600F007FC204600F045FA35B1022385
:1035440084F89C3209E0FFF715FF06E0012384F8B4
:103554009C3202E02046FFF70DFF38BD38B5044623
:103564000D468978284B197001290ED890F89C32A1
:10357400022B0ED0032B21D02946FFF7FBFE224B52
:1035840019782046FFF79FFD02E02946FFF7F2FE77
:1035940038BD81B14160032380F89C32FFF787FD79
:1035A400022803D0204600F00EFAF1E7294620460F
:1035B400FFF7E0FEECE700F006FAE9E789B14368BB
:1035C40099421DD0D9B2FFF77EFD0F4B1978616087
:1035D4002046FFF76CFD02280DD0204600F0F3F9D9
:1035E400D6E7022380F89C324160FFF76CFD204649
:1035F40000F0E9F9CCE729462046FFF7BBFEC7E710
:1036040000F0E1F9C4E700BFB405002008B5CB8899
:10361400012B0AD190F89C32022B09D9032B09D132
:103624000122011D00F0B2F901E0FFF7A3FE08BD7D
:103634005BB213B9FFF79EFEF9E70146002341F898
:10364400083F012200F0A2F9F1E708B590F89C3296
:10365400013B022B12D8CB88022B0CD10123C3606F
:10366400D0F8A4320BB10323C360022200F10C0191
:1036740000F08CF908BDFFF77DFEFBE7FFF77AFE4B
:10368400F8E708B590F89C32013B022B09D84B8827
:10369400012B00D008BD0023C0F8A43200F093F938
:1036A400F8E7FFF767FEF5E708B50B7803F060036A
:1036B400202B05D0402B03D043B1FFF75BFE03E082
:1036C400D0F8B4329B689847002008BD4B78092B8A
:1036D4001BD8DFE803F011171A141A08051A0E0B89
:1036E400FFF752FEF0E7FFF712FFEDE7FFF736FFB3
:1036F400EAE7FFF78BFFE7E7FFF7A7FFE4E7FFF74A
:103704001BFEE1E7FFF7BDFFDEE7FFF733FEDBE774
:1037140038B505460C460B7803F06003202B06D021
:10372400402B04D01BB1FFF725FE002038BD95F8CF
:103734009C32013B022B16D82379012B0ED8D5F8E5
:10374400B4329B68214628469847E388002BECD185
:103754000028EAD1284600F036F9E6E72146284653
:10376400FFF708FEE1E721462846FFF703FEDCE702
:1037740070B505468B880C7804F06004202C07D0C3
:10378400DAB2402C04D05CB1FFF7F4FD002405E06C
:10379400D5F8B4329B68284698470024204670BD6B
:1037A400202C09D04E78012E33D0032E0AD0002EBF
:1037B40055D0FFF7DFFDF1E7D0F8B4329B689847A6
:1037C4000446EBE790F89C32022B04D0032B11D073
:1037D400FFF7D0FDE2E70AB1802A03D12846FFF7BC
:1037E400C9FDDBE7114600F086FA8021284600F087
:1037F40082FAD3E74B8823B91AB1802A01D0CB8847
:103804001BB1284600F0DFF8C8E7114600F073FA50
:10381400F7E790F89C32022B04D0032B11D0FFF76A
:10382400A9FDBBE70AB1802A03D12846FFF7A2FD10
:10383400B4E7114600F05FFA8021284600F05BFAF5
:10384400ACE74B88002BA9D112F07F0F03D1284697
:1038540000F0B9F8A2E7114600F055FAF7E790F83E
:103864009C02022806D0032829D02846FFF782FDAF
:10387400344693E70AB1802A13D113F0800F15D18F
:1038840002F07F0202EB8202910001F5A871294443
:10389400043100230B600222284600F077F83446F6
:1038A4007CE72846FFF766FD344677E702F07F029F
:1038B40002EB82029100103129440431E9E75BB242
:1038C400002B1FDB02F00F0000EB800005EB8000F3
:1038D400D0F8580120B3002B27DB02F07F0303EB61
:1038E40083039C0004F5A8742C4404340AB1802A90
:1038F40024D10023236002222146284600F046F802
:1039040034464BE702F00F0000EB800005EB80002B
:1039140080690028DFD12846FFF72CFD34463DE7B7
:103924002846FFF727FD344638E702F07F0303EB10
:1039340083039C0010342C440434D7E711462846F2
:1039440000F0E9F910B101232360D4E700232360D8
:10395400D1E7D0B170B50D4616460446FFF7E2FC38
:10396400431C5B009BB233802B7003236B700223D8
:1039740007E001345A1CD2B2E8540233DBB200210E
:10398400A95420780028F4D170BD704708B51346B7
:103994000222C0F89422C36103620A46002100F0A7
:1039A400D9F9002008BD08B513460A46002100F0E5
:1039B400D1F9002008BD08B513460A46002100F0DD
:1039C400D1F9002008BD08B50423C0F894320023BF
:1039D4001A46194600F0BEF9002008BD08B50523B3
:1039E400C0F8943200231A46194600F0BBF90020AF
:1039F40008BD000008B500220B490C48FFF734FB52
:103A040048B90B490948FFF746FB38B90748FFF79F
:103A140049FB30B908BDFCF77DFCF2E7FCF77AFC02
:103A2400F4E7FCF777FCF5E714010020B805002063
:103A34005800002012230B800048704730010020FA
:103A440004230B8000487047440100200023934264
:103A54001ED200B510E00CF1370C01F813C00001C0
:103A64004FEA430C0CF1010C4FF0000E01F80CE08E
:103A74000133DBB2934209D24FEA107CB0F1204FFC
:103A8400E9D20CF1300C01F813C0E8E75DF804FB4F
:103A94007047000038B50B4BD3F8E807D3F8EC4770
:103AA400D3F8F037C01800D138BD074D0822A91C3F
:103AB400FFF7CCFF042205F112012046FFF7C6FFF1
:103AC400F2E700BF00F0FF1F4801002008B51A23E9
:103AD4000B80FFF7DFFF014808BD00BF480100204D
:103AE40008B50A4628B905490548FFF732FF0348D7
:103AF40008BD02490248FFF72CFFF8E77C080020C4
:103B04008C3F000810B50A46034C21460348FFF7D2
:103B140020FF204610BD00BF7C080020A03F000805
:103B240008B50A4628B905490548FFF712FF0348B6
:103B340008BD02490248FFF70CFFF8E77C080020A3
:103B4400B43F000808B50A4628B905490548FFF7F7
:103B540000FF034808BD02490248FFF7FAFEF8E7F0
:103B64007C080020C03F0008022805D8DFE800F0E8
:103B740005040200012070470220704702680E4BC2
:103B84009A4200D0704700B583B003F5DA33DA699E
:103B940042F40002DA61DB6903F400030193019B40
:103BA400002211461420FCF7D5FC1420FCF70AFD72
:103BB40003B05DF804FB00BF005C004008B500F5ED
:103BC4002C71D0F8E802FFF785FA08BD08B501EBBF
:103BD400810300EBC303D3F87C21D0F8E802FFF79C
:103BE400A6FA08BD08B501EB810300EBC303DA6B49
:103BF400D0F8E802FFF7E1FA08BD08B5D0F8E8020A
:103C0400FFF782FB08BD10B504468368022B09D177
:103C14000121D4F8E802FFF760FBD4F8E802FFF7CB
:103C240034FB10BDFCF776FBF2E7000010B5044648
:103C3400D0F8E802FFF754FBA36923B1024A1369E1
:103C440043F00603136110BD00ED00E008B5D0F8A1
:103C5400E802FFF74EFB08BD10B504461648C0F84D
:103C6400E842C4F8C002154B0360082343600223F2
:103C7400836000238361C3610362FCF791FEB8B9DA
:103C8400182300221146D4F8C002FDF78DFD5823F5
:103C940000228021D4F8C002FDF786FD4FF4807322
:103CA40000228121D4F8C002FDF77EFD002010BD62
:103CB400FCF730FBE4E700BF7C0A0020005C004016
:103CC40008B5D0F8C002FCF7F7FEFFF74DFF08BDBA
:103CD40008B594461A466346D0F8C002FDF72FFC97
:103CE400FFF742FF08BD08B5D0F8C002FDF769FC34
:103CF400FFF73AFF08BD08B5D0F8C002FDF7DDFCB8
:103D0400FFF732FF08BD08B5D0F8C002FDF711FD7A
:103D1400FFF72AFF08BDD0F8C03211F0800F08D198
:103D240001F07F0101EB810103EBC10191F86A010C
:103D3400704701F07F01013101EB810103EBC10107
:103D44008878704708B5D0F8C002FDF7FAFAFFF793
:103D54000BFF08BD08B5D0F8C002FDF786FCFFF7DD
:103D640003FF08BD08B5D0F8C002FDF75CFCFFF7FF
:103D7400FBFE08BD00487047680D0020704770477F
:103D840070B50D4E0D4D761BB61006D0002455F8B7
:103D9400043B01349847A642F9D1094E094D00F07D
:103DA400D5F8761BB61006D0002455F8043B013430
:103DB4009847A642F9D170BDD43F0008D43F00080B
:103DC400DC3F0008D43F0008830730B548D0541EB8
:103DD400002A3FD00346CAB201E0013C3AD303F8BB
:103DE400012B9D07F9D1032C2DD9CDB245EA052528
:103DF4000F2C45EA054536D9A4F1100222F00F0C28
:103E040003F1200EE6444FEA121C03F1100242E9CA
:103E1400045542E9025510327245F8D10CF1010201
:103E240014F00C0F03EB021204F00F0C13D0ACF1DE
:103E3400040323F003030433134442F8045B934262
:103E4400FBD10CF003042CB1CAB21C4403F8012BBF
:103E54009C42FBD130BD64461346002CF4D1F9E7F3
:103E640003461446BFE71A46A446E0E7024B13B1E3
:103E7400024800F005B8704700000000913E0008B9
:103E8400002301461A46184600F01AB838B5084B04
:103E9400084D5B1B9C1007D0043B1D44013C55F8A6
:103EA40004399847002CF9D1BDE8384000F054B8E3
:103EB400E03F0008DC3F0008704700BF704700BFC8
:103EC4002DE9F047DFF87CA00646DAF800009846B2
:103ED4000F469146FFF7F0FF1B4B1B68D3F8484190
:103EE40024B365681F2D26DC5EB96B1C0235DAF835
:103EF4000000636044F82570FFF7E0FF0020BDE890
:103F0400F087012304EB8501C1F88890D4F8882157
:103F1400AB401A43022EC4F88821C1F80881E4D1C9
:103F2400D4F88C211343C4F88C31DEE703F5A6746E
:103F3400C3F84841D5E7DAF80000FFF7BFFF4FF0B8
:103F4400FF30DCE790050020D03F0008F8B500BF43
:103F5400F8BC08BC9E467047F8B500BFF8BC08BC66
:043F64009E467047BE
:103F68000000000000000000010203040607080921
:103F780002030405060708090A0B0C0D0E0F1010A2
:103F8800000000005279616E27732053544D33327C
:103F9800204D6F757365000053544D6963726F65EA
:103FA8006C656374726F6E696373000048494420DE
:103FB800436F6E666967000048494420496E74651E
:0C3FC80072666163650000006801002063
:083FD400713E0008090200081B
:043FDC00E5010008F3
:103FE0000024F40001000000100000000501090297
:103FF000A1010901A10005091901290315002501E5
:10400000950375018102950175058101050109304E
:10401000093109381581257F750895038106C00986
:104020003C05FF09011500250175019502B12275B6
:10403000069501B101C0000043300008213000089E
:104040000D2F00080000000000000000F52E000801
:104050000000000000000000000000000000000060
:10406000DD2E0008D12E0008E92E0008012F0008DF
:1040700009022200010100E03209040000010301ED
:104080000200092111010001224A000705810304F1
:10409000000A000009022200010100E032090400C8
:1040A000000103010200092111010001224A000759
:1040B0000581030400070000092111010001224AC3
:1040C000000000000A06000200000040010000009D
:1040D00009022200010100E032090400000103018D
:1040E0000200092111010001224A00070581030491
:1040F000000A0000393A0008453A0008093B000868
:10410000E53A0008D13A0008253B0008493B000881
:10411000120100020000004083042B57000201023C
:1041200003010000040309041A030000000000005A
:10413000000000000000000000000000000000007F
:1041400000000000000000000000000054040020F7
:10415000BC04002024050020000000000000000036
:10416000000000000000000000000000000000004F
:10417000000000000000000000000000000000003F
:10418000000000000000000000000000000000002F
:10419000000000000000000000000000000000001F
:1041A000000000000000000000000000000000000F
:1041B00000000000000000000000000000000000FF
:1041C00000000000000000000000000000000000EF
:1041D00000000000000000000000000000000000DF
:1041E00000000000000000000000000000000000CF
:1041F00001000000000000000E33CDAB34126DE66C
:10420000ECDE05000B0000000000000000000000D4
:10421000000000000000000000000000000000009E
:10422000000000000000000000000000000000008E
:10423000000000000000000000000000000000007E
:10424000000000000000000000000000000000006E
:044570007C0D00209E
:040000050800045596
:00000001FF
