:020000040800F2
:100000000000012095080008AD060008AF060008B2
:10001000B1060008B3060008B5060008000000009D
:10002000000000000000000000000000B70600080B
:10003000B906000800000000BB060008BD06000865
:10004000DD080008DD080008DD080008DD080008FC
:10005000DD080008DD080008C5060008DD06000808
:10006000E7060008F1060008FD060008DD080008A4
:10007000DD080008DD08000815070008250700084E
:10008000DD080008DD080008DD080008DD080008BC
:1000900035070008DD080008DD08000845070008EE
:1000A000DD080008DD080008DD080008DD0800089C
:1000B000DD080008DD080008DD080008DD0800088C
:1000C000DD080008DD080008DD080008DD0800087C
:1000D000DD0800085D070008DD080008DD080008ED
:1000E000DD080008DD080008DD080008DD0800085C
:1000F000DD080008DD080008DD080008DD0800084C
:10010000DD080008DD080008DD080008DD0800083B
:10011000DD080008DD080008DD080008DD0800082B
:10012000DD080008DD080008DD080008DD0800081B
:1001300000000000000000000000000000000000BF
:1001400000000000000000000000000000000000AF
:10015000000000000000000000000000000000009F
:10016000000000000000000000000000000000008F
:10017000000000000000000000000000000000007F
:10018000000000000000000000000000000000006F
:10019000000000000000000000000000000000005F
:1001A000000000000000000000000000000000004F
:1001B000000000000000000000000000000000003F
:1001C000000000000000000000000000000000002F
:1001D000000000000000000000000000000000001F
:0401E0005FF8E0F1F3
:1001E40010B5054C237833B9044B13B10448AFF36D
:1001F40000800123237010BD94050020000000003E
:10020400F44F000808B5034B1BB103490348AFF38F
:10021400008008BD0000000098050020F44F00088D
:1002240000B583B00E4B5A6942F001025A615B6912
:1002340003F001030193019B002211460E2000F0FC
:10024400A9FB0E2000F0DEFB002211460F2000F077
:10025400A1FB0F2000F0D6FB03B05DF804FB00BF48
:10026400001002402DE9F04389B000240494059461
:10027400069407944B4B9A6942F040029A619A693A
:1002840002F040020092009A9A6942F010029A61C8
:100294009A6902F010020192019A9A6942F00402EA
:1002A4009A619A6902F004020292029A9A6942F0EF
:1002B40008029A619B6903F008030393039BDFF828
:1002C400E89022462021484600F0CDFF374F2246D1
:1002D4002021384600F0C7FF4FF02008CDF81080E9
:1002E4000126059602250695079504A9484600F0BF
:1002F40093FECF2304932E4B05930696A9F500692C
:1003040004A9484600F088FE30230493294B059342
:10031400069604A9484600F07FFE4FF480730493C8
:100324000595079504A9244800F076FECDF81080C1
:1003340005960695079504A9384600F06DFE2246F9
:100344002146062000F026FB062000F05BFB224637
:100354002146072000F01EFB072000F053FB224635
:100364002146082000F016FB082000F04BFB224633
:100374002146092000F00EFB092000F043FB224631
:1003840021460A2000F006FB0A2000F03BFB22462F
:100394002146172000F0FEFA172000F033FB09B0C5
:1003A400BDE8F0830010024000180140000C014039
:1003B40000001110000031100008014070B504461F
:1003C400654B00221A60012815D0022C20D0042C81
:1003D4002CD0082C3AD0102C48D0202C71D0402C92
:1003E40000F09780802C00F0A68004225A495B48D4
:1003F40003F078FE70BDCE229A705949594B1868A3
:1004040008601B790B710422574802F0A7FBDCE754
:10041400514B32225A70524D544B03CB28606960C1
:1004240007222946504802F099FBD0E74A4BCE22D6
:100434005A704B494E4B186808609A889B798A8099
:100444008B710622484802F089FBC2E7424B3222F4
:100454009A704349474B186808609A889B798A8048
:100464008B710622404802F079FBB4E71021424820
:1004740000F0F2FE90B9384A137843F00103137088
:10048400374D3E4B07CB28606960AA601B782B73FD
:100494000C222946344802F061FB9EE72E4B0022D1
:1004A4001A702F4D364B07CB28606960AA601A88F2
:1004B4009B78AA81AB730E2229462B4802F04EFB8F
:1004C4008BE720212C4800F0C7FE90B9224A13780C
:1004D40043F002031370224D2A4B07CB2860696056
:1004E400AA601B88AB810D2229461F4802F036FB07
:1004F40075E7194B00221A70194E234D0FCD306049
:100504007160B260F3600F223146174802F026FB97
:1005140065E7114B0522DA70114D1C4B03CB2860A3
:1005240069601A889B782A81AB720A2229460E4890
:1005340002F014FB56E7084BFB22DA70084C144B0C
:1005440007CB20606160A2601B7823730C222146D4
:10055400054802F003FB48E7B00500200807002027
:10056400B40500200C500008BC06002014500008FC
:100574001C50000824500008001001402C500008B2
:100584003C5000084C5000085C5000086C500008B7
:100594007850000872B6FEE700B597B02822002113
:1005A4000CA804F063FC00230793089309930A93AF
:1005B4000B930193029303930493059306930122EF
:1005C4000C924FF480330D931092022213921493E1
:1005D4004FF4E01315930CA801F026FEF0B90F2395
:1005E400079302210891002309934FF480620A9231
:1005F4000B9307A802F07EF890B91023019300230F
:10060400069301A802F052F960B900224FF0E061AC
:10061400104602F011F817B05DF804FBFFF7BAFFBB
:10062400FFF7B8FFFFF7B6FF10B500F07DF9FFF74D
:10063400B3FFFFF717FEFFF7F3FD04F02DFA00F008
:1006440095F8054C054B03CB2060616007222146D9
:10065400034802F083FAFEE7B4050020885000083E
:10066400BC06002082B00E4B9A6942F001029A61E6
:100674009A6902F001020092009ADA6942F080520B
:10068400DA61DB6903F080530193019B054A5368E7
:1006940023F0E06343F00073536002B0704700BF7F
:1006A4000010024000000140FEE7FEE7FEE7FEE71F
:1006B400FEE770477047704708B500F047F908BD7A
:1006C40008B5012000F0DEFD2021024800F0D1FD34
:1006D40008BD00BF0018014008B5022000F0D2FD9B
:1006E40008BD08B5042000F0CDFD08BD08B50820FC
:1006F40000F0C8FD08BD000008B5102000F0C2FDE0
:100704002021024800F0B5FD08BD00BF000C0140E7
:1007140008B5024800F00AFB08BD00BF78060020B7
:1007240008B5024800F002FB08BD00BF34060020F3
:1007340008B5024801F027FB08BD00BFCC0B002020
:1007440008B5202000F09EFD402000F09BFD802095
:1007540000F098FD08BD000008B5024802F012FB45
:1007640008BD00BFBC0600207047000008B50A4859
:100774000A4B03604FF4E133436000238360C3609A
:1007840003610C2242618361C36102F0B7F900B9CD
:1007940008BDFFF7FFFEFBE7BC0600200038014060
:1007A40070B586B000230293039304930593026803
:1007B400314B9A4201D006B070BD044603F558434C
:1007C4009A6942F480429A619A6902F480420092E2
:1007D400009A9A6942F004029A619B6903F0040347
:1007E4000193019B4FF400730293022303930323A9
:1007F4000593224E02A9304600F00EFC4FF48063AC
:10080400029300250395049502A9304600F004FCE8
:100814001B481C4B03601023436085608023C36026
:10082400056145618561C56100F024F9E8B9144B9F
:1008340063635C621448154B036000234360836068
:100844008022C260036143618361C36100F012F9D5
:1008540070B90D4BA3635C6200221146252000F0A1
:1008640099F8252000F0CEF8A5E7FFF793FEDEE720
:10087400FFF790FEEDE700BF00380140000801409B
:10088400780600204400024034060020580002404C
:100894000C480D490D4A002302E0D458C4500433D7
:1008A400C4188C42F9D30A4A0A4C002301E01360AD
:1008B4000432A242FBD3FFF757FF04F0B3FAFFF769
:1008C400B3FE70470000002094050020105100087A
:1008D40094050020D00E0020FEE7000010B5044669
:1008E4000E4B18784FF47A73B3FBF0F30C4A10688C
:1008F400B0FBF3F000F094F868B90F2C01D9012093
:100904000AE0002221464FF0FF3000F043F8054B87
:100914001C60002000E0012010BD00BF0400002086
:10092400000000200800002008B5074A136843F0BF
:1009340010031360032000F01BF80020FFF7CEFF24
:10094400FFF790FE002008BD00200240034A116812
:10095400034B1B780B441360704700BF0007002053
:1009640004000020014B1868704700BF00070020F6
:10097400074AD36823F4E0631B041B0C000200F451
:10098400E060034343F0BF6343F40033D360704734
:1009940000ED00E000B5194BDB68C3F30223C3F19B
:1009A400070CBCF1040F28BF4FF0040C03F1040E34
:1009B400BEF1060F18D9033B4FF0FF3E0EFA0CFCB4
:1009C40021EA0C0199400EFA03F322EA03031943C6
:1009D40000280BDB0901C9B200F1604000F5614059
:1009E40080F800135DF804FB0023E5E700F00F0036
:1009F4000901C9B2024B1954F4E700BF00ED00E04D
:100A040014ED00E0002807DB00F01F024009012379
:100A14009340024A42F82030704700BF00E100E0F2
:100A24000138B0F1807F0BD24FF0E0235861054AC2
:100A3400F02182F823100020986107221A61704780
:100A44000120704700ED00E030B40124056CAC4097
:100A5400C56B6C60046863604368102B05D0036841
:100A640099600368DA6030BC704703689A60036871
:100A7400D960F8E700283AD010B4024600681D4B4C
:100A8400984229D81C4B03441C49A1FB03131B099E
:100A94009B0013641A4BD363022382F8213001684C
:100AA40021F47F5121F03001536894682343D468C2
:100AB4002343146923435469234394692343D46926
:100AC40023430B43036000209063012382F8213009
:100AD40082F8200010BC70470A4B03440749A1FB6D
:100AE40003131B099B001364074BD363D4E7012052
:100AF400704700BF07040240F8FFFDBFCDCCCCCC4B
:100B040000000240F8FBFDBF0004024038B5044673
:100B140090F82000012831D0012084F8200094F8B6
:100B24002100012804D0002384F82030022038BD9D
:100B3400022084F821000020A0632568286820F0A2
:100B4400010028602046FFF77FFFE36A5BB122685B
:100B5400136843F00E0313602268136843F0010323
:100B640013600020E3E72268136823F00403136092
:100B74002268136843F00A031360EDE70220D6E706
:100B840090F82130022B06D004238363002380F8DD
:100B94002030012070470268136823F00E031360AD
:100BA4000268136823F001031360036CC16B012214
:100BB40002FA03F34B6080F82120002380F82030F0
:100BC4001846704708B590F82130022B03D004234F
:100BD4008363012008BD0268136823F00E031360C9
:100BE4000268136823F00103136003684B4A9342BD
:100BF4004ED9783A934224D01432934230D01432EE
:100C040093422FD0143293422FD0143293422FD0D8
:100C1400143293422FD0143293422FD002F56272D1
:100C240093422ED0143293422DD0143293422CD0BE
:100C34001432934202D04FF4803203E04FF48052D6
:100C440000E00122364B5A60012380F82130002352
:100C540080F82030436B002B5ED098470020B9E722
:100C64001022EFE74FF48072ECE74FF48052E9E78B
:100C74004FF48032E6E74FF48012E3E74FF08072DE
:100C8400E0E70122DEE71022DCE74FF48072D9E7C7
:100C9400244A934224D01432934225D014329342EE
:100CA40024D01432934224D01432934224D01432E8
:100CB400934224D01432934224D002F562729342B8
:100CC40023D01432934222D01432934221D01432CE
:100CD400934202D04FF4803203E04FF4805200E09C
:100CE4000122114B5A60AFE71022FAE74FF48072E9
:100CF400F7E74FF48052F4E74FF48032F1E74FF412
:100D04008012EEE74FF08072EBE70122E9E7102250
:100D1400E7E74FF48072E4E700205BE780000240DD
:100D240000040240080002400000024038B5C36BD2
:100D34001A6804682568016C04238B40134200F090
:100D44009B8015F0040F00F09780236813F0200FA8
:100D540003D1236823F00403236003689A4A93426F
:100D640046D9783A934224D01432934228D014328C
:100D7400934227D01432934227D01432934227D07F
:100D84001432934227D01432934227D002F5627270
:100D9400934226D01432934225D01432934224D065
:100DA4001432934202D04FF4802203E04FF4804285
:100DB40000E00422854B5A60C36A03B1984738BDEA
:100DC4004022F7E74FF48062F4E74FF48042F1E702
:100DD4004FF48022EEE74FF48002EBE74FF080629D
:100DE400E8E70422E6E74022E4E74FF48062E1E723
:100DF400774A934224D01432934225D0143293423A
:100E040024D01432934224D01432934224D0143286
:100E1400934224D01432934224D002F56272934256
:100E240023D01432934222D01432934221D014326C
:100E3400934202D04FF4802203E04FF4804200E05A
:100E44000422644B5A60B7E74022FAE74FF4806209
:100E5400F7E74FF48042F4E74FF48022F1E74FF4D0
:100E64008002EEE74FF08062EBE70422E9E74022DC
:100E7400E7E74FF48062E4E702238B40134200F07B
:100E8400AB8015F0020F00F0A780236813F0200F49
:100E940006D1236823F00A032360012380F821305C
:100EA4000368494A93424BD9783A934224D0143286
:100EB40093422DD0143293422CD0143293422CD02E
:100EC400143293422CD0143293422CD014329342D5
:100ED4002CD002F5627293422BD0143293422AD062
:100EE4001432934229D01432934202D04FF4003288
:100EF40003E04FF4005200E00222344B5A60002316
:100F040080F82030836A002B3FF459AF984756E7A6
:100F14002022F2E74FF40072EFE74FF40052ECE7BF
:100F24004FF40032E9E74FF40012E6E74FF00072A5
:100F3400E3E70222E1E72022DFE74FF40072DCE777
:100F4400234A934224D01432934225D0143293423C
:100F540024D01432934224D01432934224D0143235
:100F6400934224D01432934224D002F56272934205
:100F740023D01432934222D01432934221D014321B
:100F8400934202D04FF4003203E04FF4005200E0E9
:100F94000222104B5A60B2E72022FAE74FF40072A3
:100FA400F7E74FF40052F4E74FF40032F1E74FF45F
:100FB4000012EEE74FF00072EBE70222E9E720228D
:100FC400E7E74FF40072E4E78000024000040240C7
:100FD4000800024000000240082303FA01F1114214
:100FE4003FF4EDAE15F0080F3FF4E9AE236823F0AB
:100FF4000E032360026CC16B012303FA02F24A6000
:10100400836380F82130002380F82030036B002BA9
:101014003FF4D5AE9847D2E670B582B00024A4461A
:10102400B0E0874DAA4210D007D9864DAA420CD011
:1010340005F58035AA4208D013E0A5F58015AA422B
:1010440003D005F57025AA4207D18A68002A62D028
:10105400012A5BD04361082403E0A5F58015AA4268
:10106400F3D0BEF1FF0F58D80646BEF1FF0F56D895
:101074004FEA8C0233680F25954023EA050304FAEE
:1010840002F2134333604B6813F0805F78D06E4BE9
:101094009A6942F001029A619B6903F0010301938A
:1010A400019B4FEA9C02951C684B53F825600CF099
:1010B40003039D000F23AB4026EA0306644B9842CA
:1010C40033D003F58063984200F0988003F5806381
:1010D400984200F0958003F58063984200F0928076
:1010E40003F58063984200F08F8003F58063984293
:1010F40019D006231AE0CC68B3E7CC680434B0E70F
:10110400CC680834ADE7CC680C34AAE70361082442
:10111400A7E70024A5E70424A3E7061DA5E7ACF18F
:1011240008029200A6E7052300E00023AB40334306
:101134000232464D45F822304B6813F4803F65D0A7
:10114400444A136843EA0E0313604B6813F4003FE8
:1011540062D0404A536843EA0E0353604B6813F469
:10116400801F5FD03B4A936843EA0E0393604B6849
:1011740013F4001F5CD0374AD36843EA0E03D360EC
:101184000CF1010C0A6832FA0CF357D0012303FA6C
:101194000CF302EA030E33EA0202F1D14A68122A7E
:1011A4003FF63FAF122A3FF65CAF01A555F822F097
:1011B4004F100008FB100008051100081711000863
:1011C400671000086710000867100008671000081F
:1011D400671000086710000867100008671000080F
:1011E40067100008671000086710000867100008FF
:1011F40067100008FF1000080B110008012395E791
:10120400022393E7032391E704238FE7114A13682A
:1012140023EA0E03136098E70E4A536823EA0E0389
:1012240053609BE70B4A936823EA0E0393609EE79F
:10123400084AD36823EA0E03D360A1E702B070BD65
:101244000000221000003110001002400000014094
:1012540000080140000401408368194201D00120C4
:101264007047002070470AB10161704709040161A9
:101274007047C36801EA030221EA030141EA02411B
:101284000161704708B5054B5B69034200D108BD95
:10129400024B5861FFF792F8F9E700BF00040140E0
:1012A40038B512F4804F44D00468B4F850309BB27F
:1012B40091F800C003EBCC03023304EB4303B3F80F
:1012C4000044C4F309048B69A34228D31B1B8B611C
:1012D4008B697BB9056835F82C309BB223F48043C5
:1012E40023F0700383F4005343F4004343F080037A
:1012F40025F82C3012F0400F0ED002680D7832F829
:1013040025309BB223F4E04323F0700343F40043FD
:1013140043F0C00322F8253024B9204638BD002309
:101324008B61D5E723460A894969006802F0F3FD19
:10133400F3E70468B4F850309BB291F800C003EBB3
:10134400CC03063304EB4303B3F80044C4F30904A9
:101354008B69A3422FD31B1B8B618B697BB90568F7
:1013640035F82C309BB223F4804323F0700383F4CC
:10137400005343F4004343F0800325F82C3012F06B
:10138400400F0FD1026891F800C032F82C309BB2A4
:1013940023F4E04323F0700343F4004343F0C00319
:1013A40022F82C30002CB8D023464A8949690068B9
:1013B40002F0B1FDB1E700238B61CEE770B586B0D2
:1013C400002800F08580044690F8A932EBB103238D
:1013D40084F8A932206801F0E7FD254655F8106B22
:1013E400EC460FCDACE80F002B68CCF80030231D81
:1013F4000ECB304601F0C8FD054658B1022384F8EF
:10140400A9320125284606B070BD80F8A83203F041
:1014140007FCDCE70021206801F0D0FD2B461AE030
:101424005A1C02EB820104EBC1010120487002EB5B
:10143400820104F8313003EB830104EBC101CB8654
:1014440002EB820C04EBCC0C00208CF803008863C4
:10145400C8630864D3B261688B42E1D316E005EB3C
:10146400850304EBC303002283F8692183F86851E0
:1014740083F86B21C3F87821C3F87C2105EB85033D
:1014840004EBC303C3F880210135EDB2A942E6D8C9
:10149400254655F8106BEC460FCDACE80F002B68D1
:1014A400CCF80030231D0ECB304601F089FD0546F3
:1014B40020B1022384F8A9320125A3E7002384F88C
:1014C4002430012384F8A932206802F0AFF899E7A8
:1014D400012597E738B590F8A832012B11D00446BE
:1014E400012580F8A852006801F055FD29462046E0
:1014F40003F097FC206802F097F8002084F8A80213
:1015040038BD0220FCE770B505460C46164612F0BD
:10151400400F00F00D810268B2F850309BB2097898
:1015240003EBC103023302EB4303B3F80024C2F319
:101534000902A369934252D99B1AA361A369002BA0
:101544006AD16378002B4DD12B68B3F8502092B246
:10155400134403EB0111B1F804349BB223F4F843B0
:101564009BB2A1F80434B1F804346FEA43436FEA40
:1015740053439BB2A1F804342B686278002A3ED10D
:10158400B3F8502092B21344227803EB0213B3F859
:101594000C2492B222F4F84292B2A3F80C24B3F8C9
:1015A4000C246FEA42426FEA524292B2A3F80C242E
:1015B4002178284603F068FB16F4804F41D02A684E
:1015C400217832F821309BB223F4E04323F07003F6
:1015D40043F4404343F0800322F8213031E00023F8
:1015E400A361ABE7012BC7D12B68B3F8502092B2AB
:1015F400134403EB01110023A1F80434BCE7012ACE
:10160400D6D1B3F8502092B21344227803EB0213DC
:101614000022A3F80C24CBE716F4804F0DD02868E1
:1016240030F821309BB223F4E04323F0700343F4F9
:10163400404343F0800320F8213094F82430012BF8
:1016440012D02A68217832F821309BB223F4E04387
:1016540023F0400383F0300343F4004343F080035A
:1016640022F82130002070BD636913446361E3698B
:101674001344E361216A236999421FD3C91A216281
:101684006278002A3FD12A68B2F8501089B20A441D
:10169400217802EB0112EBB9B2F8041489B221F4F7
:1016A400F84189B2A2F80414B2F804146FEA414173
:1016B4006FEA514189B2A2F8041426E021B900234B
:1016C40084F824301346DBE7002384F824302362B3
:1016D4000B46D5E73E2B09D8590813F0010F00D06B
:1016E4000131890289B2A2F804140EE0590913F0F9
:1016F4001F0F00D101396FEAC1616FEA514189B20C
:10170400A2F8041401E0012A06D09BB2228961697F
:10171400286801F093FF94E72A68B2F8501089B260
:101724000A44217802EB011299B2A2F80414ECE7FE
:101734000268B2F850309BB2097803EBC103063358
:1017440002EB4303B3F80024C2F30902A3699342F2
:1017540053D39B1AA361A369002B6BD16378002B2D
:101764004ED12B68B3F8502092B2134403EB01110D
:10177400B1F804349BB223F4F8439BB2A1F80434C7
:10178400B1F804346FEA43436FEA53439BB2A1F8C0
:1017940004342B686278002A3FD1B3F8502092B207
:1017A4001344227803EB0213B3F80C2492B222F40C
:1017B400F84292B2A3F80C24B3F80C246FEA424224
:1017C4006FEA524292B2A3F80C242178284603F01F
:1017D4005BFA16F4804F7FF434AF2A68217832F82C
:1017E40021309BB223F4E04323F0700343F44043DD
:1017F40043F0800322F8213023E70023A361AAE702
:10180400012BC6D12B68B3F8502092B2134403EBDA
:1018140001110023A1F80434BBE7012AD5D1B3F8A0
:10182400502092B21344227803EB02130022A3F84F
:101834000C24CAE716F4804F0DD1286830F8213003
:101844009BB223F4E04323F0700343F4404343F09A
:10185400800320F8213094F82430012B7FF4F1AE7A
:10186400636913446361E3691344E361216A23698F
:1018740099421FD3C91A21622A68617800293ED18E
:10188400B2F8501089B20A44217802EB0112EBB984
:10189400B2F80C1489B221F4F84189B2A2F80C14FC
:1018A400B2F80C146FEA41416FEA514189B2A2F8CF
:1018B4000C1426E021B9002384F824301346DBE716
:1018C4000023236284F824300B46D5E73E2B09D845
:1018D400590813F0010F00D00131890289B2A2F82E
:1018E4000C140EE0590913F01F0F00D101396FEAEF
:1018F400C1616FEA514189B2A2F80C1401E00129D7
:1019040006D09BB262896169286801F097FE98E667
:10191400B2F8501089B20A44217802EB011299B24C
:10192400A2F80C14EDE72DE9F04105462868B0F85B
:10193400443013F4004F00F00F82B0F84440A3B2D7
:1019440014F00F0440F0D88013F0100F61D0038816
:101954009AB213F4006F40F0938012F4004FE5D074
:10196400038823F070031B051B0D43F080030380E1
:101974002868B0F850309BB295F8682103EBC20395
:10198400063300EB4303B3F80034C3F30903C5F88B
:1019940084318BB1D5F87C1171B1B5F86E2102F0A8
:1019A400BAFAD5F88421D5F87C311344C5F87C31D2
:1019B4000021284603F05CF92B681A8812F4006FA2
:1019C400B4D1B3F8502092B21344D5F87821002A48
:1019D40079D1B3F80C2492B222F4F84292B2A3F86B
:1019E4000C24B3F80C246FEA42426FEA524292B2DA
:1019F400A3F80C242A6813889BB223F4804323F0B1
:101A0400700383F4405343F4004343F08003138092
:101A14008CE703889BB223F4E14323F070036FEA5D
:101A240043436FEA53439BB203802A68B2F85030B1
:101A34009BB295F8281003EBC103023302EB430376
:101A4400B3F80034C3F309036B64EA6B1344EB6328
:101A54000021284603F018F995F82430002B3FF4B0
:101A640065AF2B6C002B7FF461AF95F824302A68A6
:101A740043F08003A2F84C30002385F8243055E766
:101A8400B0F850309BB295F8682103EBC2030633DB
:101A940000EB4303B3F80034C3F30903C5F88431FE
:101AA400B5F86E2105F52C7102F035FA2A68138811
:101AB40023F070031B051B0D43F08003138028469D
:101AC40003F0CEF832E73E2A09D8510812F0010F8C
:101AD40000D001318A0292B2A3F80C248AE751099A
:101AE40012F01F0F00D101396FEAC1626FEA52424E
:101AF40092B2A3F80C247DE730F824309EB213F49C
:101B0400004F4FD116F0800F3FF410AF621C02EB70
:101B1400820105EBC101286830F824309BB223F41C
:101B2400E14323F070036FEA43436FEA53439BB2EC
:101B340020F82430CB78032B07D033B1022B40F0AC
:101B4400068116F4807F40F002812868B0F8503096
:101B54009BB2621C02EB820215F8326003EBC603EF
:101B6400023300EB4303B3F80034C3F3090304EB7B
:101B7400840205EBC202126C9A4240F2D48004EB58
:101B8400840705EBC707D21A3A6404EB840205EB19
:101B9400C202126C002A40F0CD803146284603F080
:101BA40073F8C3E630F8243023F070031B051B0DD3
:101BB40043F0800320F8243004EB8401C90001F5CC
:101BC400B47105EB010804EB840305EBC30393F83C
:101BD4007431002B42D12868B0F850309BB204EB2A
:101BE400840205EBC20292F8682103EBC2030633B8
:101BF40000EB4303B3F80074C7F3090717BB04EB06
:101C0400840305EBC303D3F884213A44C3F8842145
:101C1400D3F87C213A44C3F87C21D3F880313BB11A
:101C240004EB840305EBC303D3F878319F4275D2E8
:101C340004EB840305EBC30393F86811284603F00F
:101C440017F85FE704EB840105EBC1013B46B1F8EB
:101C54006E21D1F87C1102F05EF9D0E704EB840325
:101C640005EBC30393F86B31022B35D0296804EBE1
:101C7400840205EBC20292F8680131F820309BB26D
:101C840023F4E04323F0700343F4004343F0C00320
:101C940021F82030286892F8682130F8223013F4B3
:101CA400804F20D0B0F850309BB203EBC203023314
:101CB40000EB4303B3F80074C7F30907002F9ED069
:101CC40004EB840105EBC1013B46B1F87021D1F866
:101CD4007C1102F020F992E7324641462846FFF78C
:101CE400DFFA07468BE7B0F850309BB203EBC20330
:101CF400063300EB4303B3F80074C7F30907002F5E
:101D04003FF47DAF04EB840105EBC1013B46B1F820
:101D14007221D1F87C1102F0FEF870E74146286880
:101D240001F0A0FCEEE604EB840205EBC2020027FE
:101D340017642AE704EB840205EBC202D66B1E4447
:101D4400D663546C2344536401F08CFCEEE53246B4
:101D54002846FFF7D8FBE9E50020BDE8F08190F8BC
:101D6400A832012B0DD010B50446012380F8A83207
:101D740080F82410006801F051FC002084F8A802C7
:101D840010BD0220704710B584B00446006801F00D
:101D94004FFC10F4004F47D1206801F049FC10F4C7
:101DA400806F45D1206801F043FC10F4804F08D0C7
:101DB4002268B2F844309BB223F480439BB2A2F869
:101DC4004430206801F034FC10F4005F08D022682D
:101DD400B2F844309BB223F400539BB2A2F84430CF
:101DE400206801F025FC10F4805F32D1206801F0F6
:101DF4001FFC10F4006F78D1206801F019FC10F476
:101E0400007F40F09D80206801F012FC10F4807F78
:101E140008D02268B2F844309BB223F480739BB29A
:101E2400A2F8443004B010BD2046FFF77CFDB3E7B0
:101E34002268B2F844309BB223F480639BB2A2F8C8
:101E44004430204602F031FF00212046FFF787FF8F
:101E5400A8E72268B2F840309BB223F004039BB297
:101E6400A2F840302268B2F840309BB223F0080355
:101E74009BB2A2F84030204602F03AFF2268B2F842
:101E840044309BB223F480539BB2A2F84430ADE7B4
:101E9400226832F8231004AA02EB430222F8101C31
:101EA4000133DBB2072BF3D92268B2F840309BB27E
:101EB40043F00103A2F840302268B2F840309BB2EC
:101EC40023F001039BB2A2F840302368B3F8442006
:101ED40012F4806FF9D0B3F8442092B222F48062F5
:101EE40092B2A3F8442000230BE00023DAE722682F
:101EF40004A901EB430131F8101C22F8231001332B
:101F0400DBB2072BF3D92268B2F840309BB243F01E
:101F14000803A2F840302268B2F844309BB223F49C
:101F240000639BB2A2F844302268B2F840309BB2FE
:101F340043F00403A2F84030204602F0C9FE5BE7F8
:101F44002268B2F844309BB223F400739BB2A2F827
:101F54004430204602F0A3FE55E710B504468C46F3
:101F640011F0800F2AD101F0070000EB8001C900B5
:101F740001F5B47E04EB0E0100EB800004EBC0001D
:101F84004FF0000E80F869E10CF0070C81F800C0F6
:101F94000A61CB704A780AB1A1F80EC0022B19D09D
:101FA40094F8A832012B18D0012384F8A8322068B1
:101FB40001F017F8002084F8A80210BD01F0070012
:101FC400013000EB800104EBC1014FF0010E81F8F8
:101FD40001E0D9E700230B71E2E70220EDE710B539
:101FE40004460B4611F0800F1FD101F0070202EBEB
:101FF4008201C90001F5B471014402EB820200EBD5
:10200400C202002082F8690103F007030B7094F800
:10201400A832012B13D0012384F8A832206801F0E0
:102024009CF9002084F8A80210BD01F007020132D7
:1020340002EB820100EBC10101204870E4E70220B9
:10204400F2E710B501F0070404EB8401C90001F5BF
:10205400B471014404EB840C00EBCC0CCCF87C216F
:10206400CCF880310023CCF884318CF869318CF8B9
:10207400684124B9006801F0F5FA002010BD006839
:1020840001F0F0FAF9E710B501F0070404F1010CCE
:102094000CEB8C0100EBC10104EB840E00EBCE0EC3
:1020A400CEF83C20CEF8403001228EF84C20CEF8F9
:1020B40048300023CEF844304A700CEB8C0C00F806
:1020C4003C4024B9006801F0CDFA002010BD00683E
:1020D40001F0C8FAF9E738B501F0070542689542FE
:1020E40031D804460B4611F0800F1ED101EB81015B
:1020F400C90001F5B471014403EB830300EBC3038E
:10210400002283F8692101238B700D7094F8A832A2
:10211400012B1AD0012384F8A832206801F008FAB0
:102124005DB1002084F8A80238BD6B1C03EB830169
:1021340000EBC10101224A70E5E704F52C71206827
:1021440001F07AFAEDE70120EEE70220ECE70B4616
:1021540001F00F014268914230D810B5044613F0E3
:10216400800F21D103F0070202EB8201C90001F5BF
:10217400B471014402EB820200EBC202002082F837
:10218400690100228A7003F007030B7094F8A832E7
:10219400012B15D0012384F8A832206801F0EDF951
:1021A400002084F8A80210BD03F00702013202EBFC
:1021B400820100EBC10101204870E2E70120704771
:1021C4000220F0E711F0800F0BD001F0070101317C
:1021D40001EB810100EBC10152B90A73CB800020ED
:1021E400704701EB8101C90001F5B4710144F3E7C3
:1021F40001220A730B811B0C4B81F0E782B0084B60
:102204001B68084AA2FB03235B0A00FB03F3019348
:1022140000BF019B5A1E0192002BF9D102B07047F6
:1022240000000020D34D6210002800F0F18170B549
:1022340082B00446036813F0010F2CD0994B5B68FD
:1022440003F00C03042B1DD0964B5B6803F00C03C6
:10225400082B12D06368B3F5803F41D0002B55D1D1
:1022640003F1804303F504331A6822F480321A60C0
:102274001A6822F480221A6037E08A4B5B6813F4F0
:10228400803FE7D0874B1B6813F4003F03D063689B
:10229400002B00F0BF81236813F0020F75D0814B2F
:1022A4005B6813F00C0F5FD07E4B5B6803F00C038C
:1022B400082B54D02369002B00F08A807A4B01222A
:1022C4001A60FEF74FFB0546764B1B6813F0020FAE
:1022D40075D1FEF747FB401B0228F5D903209EE188
:1022E400704A136843F480331360636843B3FEF7A2
:1022F40039FB05466B4B1B6813F4003FCBD1FEF74B
:1023040031FB401B6428F5D9032088E1B3F5A02FE5
:1023140009D0644B1A6822F480321A601A6822F4D5
:1023240080221A60E1E703F18043A3F53C331A6885
:1023340042F480221A601A6842F480321A60D4E7A8
:10234400FEF710FB0546574B1B6813F4003FA2D061
:10235400FEF708FB401B6428F5D903205FE1514BCD
:102364005B6813F4803FA5D14E4B1B6813F0020F3A
:1023740003D02369012B40F04F814A4A136823F0AC
:10238400F803616943EAC1031360236813F0080F7B
:1023940033D0A369002B5CD0434B0122C3F88024C3
:1023A400FEF7E0FA05463F4B5B6A13F0020F21D1BA
:1023B400FEF7D8FA401B0228F5D903202FE1394A49
:1023C400136823F0F803616943EAC1031360DCE78F
:1023D400354B00221A60FEF7C5FA0546314B1B68DF
:1023E40013F0020FD1D0FEF7BDFA401B0228F5D935
:1023F400032014E10120FFF701FF236813F0040F09
:1024040000F09680274BDB6913F0805F34D1254BB5
:10241400DA6942F08052DA61DB6903F08053019398
:10242400019B0125214B1B6813F4807F26D0E368B0
:10243400012B3DD0002B53D103F1804303F504332A
:102444001A6A22F001021A621A6A22F004021A625B
:1024540033E0154B0022C3F88024FEF783FA0546C7
:10246400104B5B6A13F0020FC7D0FEF77BFA401BD8
:102474000228F5D90320D2E00025D3E70B4A1368DC
:1024840043F480731360FEF76DFA0646074B1B682E
:1024940013F4807FCBD1FEF765FA801B6428F5D94D
:1024A4000320BCE0001002400000424200700040E3
:1024B4005F4A136A43F001031362E36833B3FEF720
:1024C40051FA06465A4B1B6A13F0020F2FD1FEF73E
:1024D40049FA801B41F288339842F3D903209EE0E5
:1024E400052B09D0524B1A6A22F001021A621A6AA9
:1024F40022F004021A62E0E74D4B1A6A42F0040229
:102504001A621A6A42F001021A62D6E7FEF72AFA40
:102514000646474B1B6A13F0020F08D0FEF722FA57
:10252400801B41F288339842F3D9032077E0E5B960
:10253400E369002B72D03E4A526802F00C02082A6A
:1025440056D0022B17D03B4B00221A66FEF70AFA2C
:102554000446374B1B6813F0007F47D0FEF702FA9E
:10256400001B0228F5D9032059E0314AD36923F02E
:102574008053D361DCE72F4B00221A66FEF7F2F991
:1025840005462B4B1B6813F0007F06D0FEF7EAF9D3
:10259400401B0228F5D9032041E0236AB3F5803FAC
:1025A4001AD023494B6823F47413226A606A0243E5
:1025B40013434B601F4B01221A66FEF7D3F90446FE
:1025C4001B4B1B6813F0007F0ED1FEF7CBF9001BE9
:1025D4000228F5D9032022E0154A536823F4003376
:1025E400A1680B435360DCE7002018E0002016E0EC
:1025F400012B16D00E4B5B6803F48031226A9142A2
:1026040011D103F47013626A93420ED1002006E0E4
:1026140001207047012002E0012000E0002002B008
:1026240070BD0120FBE70120F9E70120F7E700BFB7
:10263400001002400000424230B587B00D4600232E
:1026440002930393049305930223039303230593B3
:102654004FF4807302930A4CA36943F00403A3610B
:10266400A36903F004030193019B02A90548FEF743
:10267400D3FC636823F0E0632B43636007B030BD91
:10268400001002400008014086B0164B0FCB0DF13C
:10269400180C0CE90F0040F20123ADF80430124B82
:1026A4005B6803F00C02082A02D0104806B0704799
:1026B400C3F38342624412F8100C13F4803F0CD02D
:1026C400094B5B68C3F34043634413F8143C074A63
:1026D40002FB00F0B0FBF3F0E8E7054B03FB00F06E
:1026E400E4E700BFA85000080010024000127A007E
:1026F40000093D00002800F0A08070B50D46044696
:10270400524B1B6803F007038B420BD24F4A1368EA
:1027140023F007030B431360136803F007038B4292
:1027240040F08D80236813F0020F17D013F0040FCC
:1027340004D0474A536843F4E0635360236813F0BA
:10274400080F04D0424A536843F460535360404A2C
:10275400536823F0F003A1680B435360236813F01C
:10276400010F31D06368012B20D0022B25D0384AC9
:10277400126812F0020F64D035494A6822F003024D
:1027840013434B60FEF7EEF80646314B5B6803F0EB
:102794000C036268B3EB820F16D0FEF7E3F8801BDC
:1027A40041F288339842F0D9032045E0284A126860
:1027B40012F4003FE0D101203EE0254A126812F0F5
:1027C400007FD9D1012037E0204B1B6803F00703B9
:1027D400AB420AD91D4A136823F007032B43136045
:1027E400136803F00703AB422DD1236813F0040FE1
:1027F40006D0174A536823F4E063E1680B4353603F
:10280400236813F0080F07D0114A536823F4605368
:10281400216943EAC1035360FFF736FF0C4B5B6841
:10282400C3F303130B4AD35CD8400B4B18600B4B18
:102834001868FEF753F8002070BD0120704701208E
:10284400FAE70120F8E70120F6E700BF0020024084
:1028540000100240905000080000002008000020F2
:10286400014B1868704700BF0000002008B5FFF74F
:10287400F7FF044B5B68C3F30223034AD35CD840DD
:1028840008BD00BF00100240A050000808B5FFF7C3
:10289400E7FF044B5B68C3F3C223034AD35CD8400D
:1028A40008BD00BF00100240A050000870B582B0FF
:1028B4000446036813F0010F36D03F4BDB6913F075
:1028C400805F49D13C4BDA6942F08052DA61DB69BE
:1028D40003F080530193019B0125384B1B6813F4CB
:1028E400807F3BD0344B1B6A13F4407313D062686F
:1028F40002F440729A420ED02F4A136A23F44070B5
:102904002F490126C1F840640026C1F840641062D2
:1029140013F0010F36D1284A136A23F44073616817
:102924000B431362002D3ED1236813F0020F06D02F
:10293400214A536823F44043A1680B43536023683E
:1029440013F0100F34D01C4A536823F480036169D8
:102954000B43536000202CE00025BEE7174A1368A0
:1029640043F480731360FDF7FDFF0646134B1B68A9
:1029740013F4807FB6D1FDF7F5FF801B6428F5D9E9
:10298400032016E0FDF7EEFF06460B4B1B6A13F01F
:10299400020FC0D1FDF7E6FF801B41F28833984255
:1029A400F3D9032005E0D36923F08053D361BBE757
:1029B400002002B070BD00BF001002400070004053
:1029C400000042420268D36823F0C003D36020238E
:1029D40080F83D3070470268D36823F49073D36065
:1029E4000268536923F001035361036B012B05D083
:1029F400202380F83E300023036370470268D368C5
:102A040023F01003D360F3E790F83D30DBB2212BC1
:102A140001D0022070478368B3F5805F17D0036A42
:102A24005A1C02621A7803685A60C38C9BB2013B39
:102A34009BB2C3844BB90268D36823F08003D3608C
:102A44000268D36843F04003D360002070470369F1
:102A5400002BE4D1036A1B880268C3F308035360A4
:102A6400036A02330362E0E710B50446026813699F
:102A740023F44053C1680B43136183680269134311
:102A840042691A430168CB6823F4B05323F00C0362
:102A94001343CB600268536923F4407381690B4389
:102AA40053610268134B9A4220D0FFF7DFFE0246BF
:102AB40002EB820202EB820263689B00B2FBF3F238
:102AC4000D48A0FB02314909642303FB11231B01B8
:102AD4003233A0FB03235B0903F0F00202EB011283
:102AE40003F00F03216813448B6010BDFFF7CEFE83
:102AF4000246DDE7003801401F85EB5158B310B59D
:102B0400044690F83D300BB3242384F83D3022680A
:102B1400D36823F40053D3602046FFF7A5FF22684F
:102B2400136923F4904313612268536923F02A0341
:102B340053612268D36843F40053D36000202064B7
:102B4400202384F83D3084F83E3010BD80F83C30BA
:102B5400FDF726FED8E701207047000038B590F84D
:102B64003D30DBB2202B31D10446002930D0002A7D
:102B740030D090F83C30012B2ED0012380F83C302B
:102B840001628284C28400250564212380F83D30DB
:102B9400436B12489862636B1148D862636B1148A7
:102BA4001863636B5D6320681346021D606BFDF759
:102BB400ADFF23686FF040021A6084F83C5022682D
:102BC400536943F080035361284600E0022038BD76
:102BD4000120FCE70120FAE70220F8E7EF2B0008C8
:102BE4003B2C0008492C0008704708B50346406A8E
:102BF4001B681B6813F0200F0CD10023C3840268E8
:102C0400536923F0800353610268D36843F040039F
:102C1400D36008BDFFF7E8FFFBE708B50168CA68A1
:102C240022F04002CA60202280F83D20FFF7DCFF3A
:102C3400002008BD704708B5406AFFF7FBFF08BDD8
:102C44007047704710B5446A23685A6994F83D3058
:102C5400DBB2212B10D023685A6902F0400294F8A9
:102C64003E30DBB2222B11D0236C43F010032364DB
:102C74002046FFF7E6FF10BD02F08002002AEAD0EA
:102C84000023E3842046FFF79DFEE4E7002AEBD00F
:102C94000023E3852046FFF79EFEE5E708B5406A7A
:102CA4000023C385C384FFF7CCFF08BD704790F8A9
:102CB4003E30DBB2222B60D18368B3F5805F46D00F
:102CC400826AB3F5805F04D0002B4DD10369002BD9
:102CD4004AD103685B681370836A01338362C38DCE
:102CE4009BB2013B9BB2C385002B48D100B583B096
:102CF4000268D36823F02003D3600268D36823F406
:102D04008073D3600268536923F001035361202365
:102D140080F83E30036B012B2CD10023036302683F
:102D2400D36823F01003D36003681A6812F0100FFD
:102D340006D0002201921A6801925B680193019BFC
:102D4400818DFFF7B3FF002003B05DF804FB026937
:102D5400002AB5D1826A03685B68C3F30803138051
:102D6400836A02338362BAE703685B6803F07F0314
:102D74001370B1E7FFF764FFE5E702207047002016
:102D84007047000030B583B0044602681368D06809
:102D9400516913F00F0505D113F0200F02D010F084
:102DA400200F19D12DB111F0010119D110F4907F28
:102DB40016D1216B012975D013F0800F03D010F0C8
:102DC400800F40F0D78013F0400F03D010F0400F75
:102DD40040F0D48003B030BD2046FFF768FFF9E728
:102DE40013F0010F06D010F4807F03D0226C42F060
:102DF4000102226413F0040F04D019B1226C42F0D2
:102E04000202226413F0020F04D019B1226C42F0C2
:102E14000402226413F0080F07D010F0200F00D131
:102E240019B1226C42F008022264226C002AD1D02B
:102E340013F0200F02D010F0200F21D123685B691A
:102E440003F04003226C12F0080F00D123B3204694
:102E5400FFF7C1FD23685A6912F0400F18D05A6970
:102E640022F040025A61A36B73B1464A5A63A06BC5
:102E7400FDF7A8FE0028ADD0A06B436B9847A9E7E7
:102E84002046FFF714FFD9E72046FFF7DAFEA1E753
:102E94002046FFF7D6FE9DE72046FFF7D2FE00232B
:102EA400236497E713F0100F86D010F0100F83D02F
:102EB400002301931368019353680193019B5369A1
:102EC40013F0400F32D0A16B0B685B689BB2002BF0
:102ED40080D0A08D98427FF67DAFE3858B69202B4F
:102EE40008D1A18DE38D9BB2C91A89B22046FFF7A0
:102EF400DDFE6FE7D36823F48073D36022685369DF
:102F040023F0010353612268536923F040035361A2
:102F1400202384F83E30002323632268D36823F0FF
:102F24001003D360A06BFDF72BFEDAE7A18DE38DD0
:102F34009BB2C91A89B2E38D9BB2002B3FF44AAF0E
:102F440000293FF447AFD36823F49073D360226819
:102F5400536923F001035361202384F83E30002396
:102F640023632268D36823F01003D3602046FFF75D
:102F74009DFE2FE72046FFF747FD2BE72046FFF78E
:102F84004CFE27E7A12C000884B001A880E80E00BD
:102F9400002004B0704703460020A3F844004FF417
:102FA4003F42A3F840207047B0F8403023F47C53EC
:102FB4005B045B0CA0F84030002070470020704791
:102FC40084B0844601A880E80E000123ACF84030A8
:102FD4000020ACF84000ACF84400ACF8500004B059
:102FE400704710B5034691F800C030F82C2092B217
:102FF40022F4EC4222F0700292B2C878032861D81D
:10300400DFE800F0555C0258002048F2800E42EAE6
:103014000E0223F82C2091F800C033F82C2092B231
:1030240022F4E04222F070024CEA020242EA0E026A
:1030340023F82C200A7B002A40F0C4804A78002A16
:1030440051D0B3F8502092B21A440C7802EB041217
:10305400B1F806C04FEA5C0C4FEA4C0CA2F800C46D
:103064000C7833F8242012F0400F0CD033F82420CD
:1030740092B222F4E04222F0700242F4004242F0A2
:10308400C00223F82420CA78012A1DD0097833F815
:10309400212092B222F4E04222F0400282F0200287
:1030A40042F4004242F0800223F821206AE042F414
:1030B4000072AAE742F4C0620020A6E742F48062EC
:1030C4000020A2E70120A0E7097833F8212092B27A
:1030D40022F4E04222F0400242F4004242F0800234
:1030E40023F821204EE0B3F8502092B21A440C7811
:1030F40002EB0412B1F806C04FEA5C0C4FEA4C0C28
:10310400A2F808C4B3F8502092B21A440C7802EB27
:1031140004120C69BCBBB2F80CC41FFA8CFC2CF46E
:10312400F84C1FFA8CFCA2F80CC4B2F80CC46FEA79
:103134004C4C6FEA5C4C1FFA8CFCA2F80CC40C7863
:1031440033F8242012F4804F0CD033F8242092B2A8
:1031540022F4E04222F0700242F4404242F0800243
:1031640023F82420097833F8212092B222F48042F3
:1031740022F0700282F4405242F4004242F0800293
:1031840023F8212010BD3E2C0DD84FEA540C14F026
:10319400010F01D00CF1010C4FEA8C2C1FFA8CFCAE
:1031A400A2F80CC4CBE74FEA541C14F01F0F01D152
:1031B4000CF1FF3C6FEACC646FEA5444A4B2A2F869
:1031C4000C44BCE791F800C033F82C2092B222F4EE
:1031D400E04222F0700242F4014242F0800223F8FD
:1031E4002C20B3F8502092B21A4491F800C002EB9C
:1031F4000C12B1F808C04FEA5C0C4FEA4C0CA2F870
:1032040000C4B3F8502092B21A4491F800C002EB03
:103214000C12B1F80AC04FEA5C0C4FEA4C0CA2F84D
:1032240008C44A78002A41D10C7833F8242012F4D7
:10323400804F0CD033F8242092B222F4E04222F0E2
:10324400700242F4404242F0800223F824200C78B9
:1032540033F8242012F0400F0CD033F8242092B21B
:1032640022F4E04222F0700242F4004242F0C00232
:1032740023F8242091F800C033F82C2092B222F4D1
:10328400804222F0700282F4405248F280042243C9
:1032940023F82C20097833F8212092B222F4E0425A
:1032A40022F04002224323F821206BE70C7833F804
:1032B400242012F4804F0CD033F8242092B222F44C
:1032C400E04222F0700242F4404242F0800223F8CD
:1032D40024200C7833F8242012F0400F0CD033F85B
:1032E400242092B222F4E04222F0700242F400421E
:1032F40042F0C00223F82420CA78012A1ED00C7898
:1033040033F8242092B222F4E04222F0400282F008
:10331400200242F4004242F0800223F8242009787B
:1033240033F8212092B222F4804222F0700242F457
:10333400004242F0800223F8212023E70C7833F87E
:10334400242092B222F4E04222F0400242F40042ED
:1033540042F0800223F82420E1E70B7B002B46D1C6
:103364004B7813B30A7830F8223013F0400F0CD0A6
:1033740030F822309BB223F4E04323F0700343F48B
:10338400004343F0C00320F822300A7830F822309A
:103394009BB223F4E04323F0400343F4004343F09F
:1033A400800320F82230002070470A7830F8223059
:1033B40013F4804F0CD030F822309BB223F4E04356
:1033C40023F0700343F4404343F0800320F8223099
:1033D4000A7830F822309BB223F4804323F0700340
:1033E40043F4004343F0800320F82230DBE74B78BA
:1033F400002B4ED10A7830F8223013F4804F0CD0D1
:1034040030F822309BB223F4E04323F0700343F4FA
:10341400404343F0800320F822300A7830F8223009
:1034240013F0400F0CD030F822309BB223F4E04369
:1034340023F0700343F4004343F0C00320F8223028
:103444000A7830F822309BB223F4E04323F070036F
:1034540043F4004343F0C00320F822300B7830F8E3
:10346400232092B222F4804222F0700248F2800CAF
:1034740042EA0C0220F823200A7830F822309BB26A
:1034840023F4E04323F0400343EA0C0320F8223002
:1034940089E70A7830F8223013F4804F0CD030F8E2
:1034A40022309BB223F4E04323F0700343F44043FF
:1034B40043F0800320F822300A7830F8223013F0E9
:1034C400400F0CD030F822309BB223F4E04323F0B9
:1034D400700343F4004343F0C00320F822300A7819
:1034E40030F822309BB223F4E04323F0700343F41A
:1034F400404343F0800320F822300B7830F8232037
:1035040092B222F4E04222F0400248F2800C42EAF5
:103514000C0220F823200A7830F822309BB223F4DE
:10352400804323F0700343EA0C0320F822303AE787
:103534004B788BB10A7830F822309BB223F4E04305
:1035440023F0400383F0100343F4004343F080036B
:1035540020F82230002070470A7830F822309BB2DD
:1035640023F4804323F0700383F4805343F4004333
:1035740043F0800320F82230ECE70B7B002B4BD187
:103584004B7833B30A7830F8223013F0400F0CD064
:1035940030F822309BB223F4E04323F0700343F469
:1035A400004343F0C00320F82230CB78012B33D002
:1035B4000A7830F822309BB223F4E04323F040032E
:1035C40083F0200343F4004343F0800320F82230C7
:1035D40022E00A7830F8223013F4804F0CD030F80F
:1035E40022309BB223F4E04323F0700343F44043BE
:1035F40043F0800320F822300A7830F822309BB25E
:1036040023F4804323F0700383F4405343F40043D2
:1036140043F0800320F822300020704711B9802342
:10362400A0F84C30002070470020704700207047FD
:10363400B0F8440080B270470020704710B45C1C9E
:10364400640800EB420202F5806207E00B784878D8
:1036540043EA002322F8043B0231013C002CF5D15B
:1036640010BC704770B505460C464B78012B37D01B
:103674000A7B002A40F026838B690A69934240F250
:1036840004839B1A8B61B5F850309BB22B4421788C
:1036940003EB0113002A40F0FC82B3F80C2492B22D
:1036A40022F4F84292B2A3F80C24B3F80C246FEA83
:1036B40042426FEA524292B2A3F80C24227835F8BF
:1036C40022309BB223F4804323F0700383F44053ED
:1036D40043F4004343F0800325F82230002070BDFA
:1036E4008E690A69964200D91646237B002B39D08D
:1036F400E378022B58D0227835F822309BB223F499
:10370400E04323F0700343F4014343F0800325F8BE
:103714002230236A9B1B2362237835F8232012F07E
:10372400400F00F026826278002A40F0CA81B5F882
:10373400502092B22A4402EB0313002E40F0A881D9
:10374400B3F80C2492B222F4F84292B2A3F80C24F7
:10375400B3F80C246FEA42426FEA524292B2A3F8E1
:103764000C24B0E1B6B23346E28861692846FFF71B
:1037740065FFB5F850309BB22B44227803EB02135B
:10378400A3F80464227835F822309BB223F4E04392
:1037940023F0400383F0300343F4004343F08003F9
:1037A40025F8223000209AE7236A9A4280F0528159
:1037B400227835F822309BB223F4E04323F07003DF
:1037C40043F4014343F0800325F82230236A9B1B12
:1037D4002362237835F8232012F0400F00F09D80F7
:1037E40062788ABBB5F8502092B22A4402EB0313E4
:1037F4008EB9B3F80C2492B222F4F84292B2A3F830
:103804000C24B3F80C246FEA42426FEA524292B29B
:10381400A3F80C241AE03E2E09D8720816F0010F02
:1038240000D00132920292B2A3F80C240EE0720985
:1038340016F01F0F00D1013A6FEAC2626FEA5242DA
:1038440092B2A3F80C2401E0012A2BD0B3B262890E
:1038540061692846FFF7F2FE636933446361236AB2
:103864002269934228D99B1B23626378002B40D1A1
:10387400B5F850309BB22B44227803EB0213FEB907
:10388400B3F8042492B222F4F84292B2A3F80424C6
:10389400B3F804246FEA42426FEA524292B2A3F8A8
:1038A400042428E0B5F8502092B22A4402EB031312
:1038B400B2B2A3F80C24C9E7002222621E46D4E760
:1038C4003E2E09D8720816F0010F00D00132920280
:1038D40092B2A3F804240EE0720916F01F0F00D16F
:1038E400013A6FEAC2626FEA524292B2A3F8042428
:1038F40001E0012B06D0B3B2228961692846FFF7A3
:103904009DFE3FE7B5F850309BB22B44227803EB81
:103914000213B2B2A3F80424EDE762788ABBB5F8C7
:10392400502092B22A4402EB03138EB9B3F8042454
:1039340092B222F4F84292B2A3F80424B3F8042415
:103944006FEA42426FEA524292B2A3F804241AE0A8
:103954003E2E09D8720816F0010F00D001329202EF
:1039640092B2A3F804240EE0720916F01F0F00D1DE
:10397400013A6FEAC2626FEA524292B2A3F8042497
:1039840001E0012A2BD0B3B2228961692846FFF7EE
:1039940055FE636933446361236A2269934228D9DB
:1039A4009B1B23626378002B40D1B5F850309BB247
:1039B4002B44227803EB0213FEB9B3F80C2492B221
:1039C40022F4F84292B2A3F80C24B3F80C246FEA60
:1039D40042426FEA524292B2A3F80C2428E0B5F8AE
:1039E400502092B22A4402EB0313B2B2A3F8042487
:1039F400C9E7002222621E46D4E73E2E09D8720887
:103A040016F0010F00D00132920292B2A3F80C24F6
:103A14000EE0720916F01F0F00D1013A6FEAC2627C
:103A24006FEA524292B2A3F80C2401E0012B06D0B3
:103A3400B3B2628961692846FFF700FEA2E6B5F8D1
:103A440050309BB22B44227803EB0213B2B2A3F89A
:103A54000C24EDE7217835F8212092B222F4E242D9
:103A640022F0700242F4004242F0800225F8212044
:103A7400B5F8502092B22A44217802EB01129BB28D
:103A8400A2F80434228961692846FFF7D7FD79E654
:103A94003E2E09D8720816F0010F00D001329202AE
:103AA40092B2A3F80C240EE0720916F01F0F00D195
:103AB400013A6FEAC2626FEA524292B2A3F80C244E
:103AC40001E0012A26D0B3B2628961692846FFF772
:103AD400B5FD636933446361236A2269934223D940
:103AE4009B1B2362002E3FF44DAE63786BBBB5F88D
:103AF40050309BB22B44227803EB02133E2E17D88E
:103B0400720816F0010F00D00132920292B2A3F8AB
:103B140004241CE0B5F8502092B22A4402EB0313AB
:103B2400B2B2A3F80C24CEE7002222621E46D9E7E3
:103B3400720916F01F0F00D1013A6FEAC2626FEAF0
:103B4400524292B2A3F8042401E0012B06D0B3B28E
:103B5400228961692846FFF771FD13E6B5F85030F4
:103B64009BB22B44227803EB0213B2B2A3F80424D1
:103B7400EDE762788ABBB5F8502092B22A4402EB92
:103B840003138EB9B3F8042492B222F4F84292B229
:103B9400A3F80424B3F804246FEA42426FEA5242C1
:103BA40092B2A3F804241AE03E2E09D8720816F043
:103BB400010F00D00132920292B2A3F804240EE065
:103BC400720916F01F0F00D1013A6FEAC2626FEA60
:103BD400524292B2A3F8042401E0012A26D0B3B2DF
:103BE400228961692846FFF729FD636933446361CB
:103BF400236A2269934223D99B1B2362002E3FF43C
:103C0400C1AD63786BBBB5F850309BB22B442278BE
:103C140003EB02133E2E17D8720816F0010F00D0E2
:103C24000132920292B2A3F80C241CE0B5F85020A1
:103C340092B22A4402EB0313B2B2A3F80424CEE7EF
:103C4400002222621E46D9E7720916F01F0F00D126
:103C5400013A6FEAC2626FEA524292B2A3F80C24AC
:103C640001E0012B06D0B3B2628961692846FFF7EF
:103C7400E5FC87E5B5F850309BB22B44227803EB82
:103C84000213B2B2A3F80C24EDE700228A611A46AB
:103C9400F9E43E2A09D8510812F0010F00D001318D
:103CA400890289B2A3F80C1408E5510912F01F0F18
:103CB40000D101396FEAC1616FEA514189B2A3F8B9
:103CC4000C14FBE4CA78022A45D0012A40F0208172
:103CD40089692269914240F2D480891AA161D3B9D9
:103CE400B5F850309BB22B44217803EB0113002A22
:103CF40040F0CB80B3F8041489B221F4F84189B2BE
:103D0400A3F80414B3F804146FEA41416FEA514173
:103D140089B2A3F804146378002B40F0EA80B5F864
:103D240050309BB22B44217803EB0113002A40F05E
:103D3400C580B3F80C2492B222F4F84292B2A3F8EC
:103D44000C24B3F80C246FEA42426FEA524292B256
:103D5400A3F80C24B2E4CBB9B0F850309BB20344BE
:103D64000A7803EB02130A6972BBB3F8042492B213
:103D740022F4F84292B2A3F80424B3F804246FEABC
:103D840042426FEA524292B2A3F804246378002BB1
:103D94004CD1B5F850309BB22B44227803EB02137C
:103DA400226952BBB3F80C2492B222F4F84292B2C4
:103DB400A3F80C24B3F80C246FEA42426FEA52428F
:103DC40092B2A3F80C2433E03E2A09D8510812F029
:103DD400010F00D001318A0292B2A3F80424D5E77E
:103DE400510912F01F0F00D101396FEAC1626FEA65
:103DF400524292B2A3F80424C8E73E2A09D85108D3
:103E040012F0010F00D001318A0292B2A3F80C24FF
:103E14000EE0510912F01F0F00D101396FEAC1629F
:103E24006FEA524292B2A3F80C2401E0012B1DD098
:103E3400E369002B3FF442AC227835F8221044F2B7
:103E4400400303EA01008B4302D000287FF436AC20
:103E540035F822309BB223F4E04323F0700343F49B
:103E6400004343F0C00325F8223027E4B5F850306E
:103E74009BB22B44227803EB0213228AA3F80C246E
:103E8400D6E70022A2610A4629E73E2A09D851084A
:103E940012F0010F00D00131890289B2A3F8041491
:103EA40039E7510912F01F0F00D101396FEAC161DE
:103EB4006FEA514189B2A3F804142CE73E2A0AD8C8
:103EC400510812F0010F00D001318A0292B2A3F816
:103ED4000C24FFF7F3BB510912F01F0F00D1013975
:103EE4006FEAC1626FEA524292B2A3F80C24FFF760
:103EF400E5BB012B7FF4E2ABB5F850309BB22B4409
:103F0400217803EB011392B2A3F80C24FFF7D6BB7C
:103F14000120FFF7E4BB10B45C0800EB420000F59D
:103F2400806007E030F8042B0A70C2F307224A705D
:103F34000231013C002CF5D113F0010F01D00388AC
:103F44000B7010BC704700002223038000487047A8
:103F5400900000202223038000487047B400002012
:103F64002223038000487047F0000020D0F8B832C4
:103F740000201873704700000A230380004870472C
:103F8400E400002070B582B0D0F8B8520023ADF838
:103F940006300C7814F0600425D0202C72D14B78B4
:103FA400023B092B1BD8DFE803F014091A1A1A1A6A
:103FB4001A1A0F058B782B60002466E0012229462B
:103FC40000F036FD002460E04B881B0A6B6000247F
:103FD4005BE00122291D00F02BFD002455E000F0D8
:103FE4001BFA022451E04E780B2E47D8DFE806F086
:103FF400064646464646154646462D3B90F89C32B4
:10400400032B03D000F008FA02243EE002220DF153
:10401400060100F00DFD344637E04B881B0A222BC5
:1040240009D0212B0DD1CA88092A28BF0922184991
:1040340000F0FEFC29E0CA884A2A28BF4A22154912
:10404400F6E700F0E9F902241FE090F89C32032B14
:1040540003D000F0E1F9022417E0012205F1080180
:1040640000F0E6FC11E090F89C32032B02D18B782F
:10407400AB600AE000F0D0F9022406E000F0CCF9CD
:10408400022402E000F0C8F90224204602B070BD08
:10409400D80000200C00002010B50446812100F057
:1040A40074FE0023E362D4F8B80220B100F0B8FE35
:1040B4000023C4F8B832002010BD10B50446042310
:1040C4000322812100F056FE0123E362102000F058
:1040D400A3FEC4F8B80218B100230373184610BD38
:1040E4000220FCE710B5D0F8B84290F89C32032BBC
:1040F40001D0002010BD237B002BFAD101232373B0
:1041040013460A46812100F077FEF2E798B108B51C
:104114000346D0F8B40210B10020C3F8B40209B1C8
:10412400C3F8B012012183F89C121A70184600F0EB
:10413400E5FD002008BD0220704719B1C0F8B41293
:10414400002070470220704708B500F00BFE0020E5
:1041540008BD08B5D0F8B4322BB11B68984700B934
:1041640008BD0220FCE70220FAE708B5D0F8B43213
:104174005B689847002008BD38B5044600F52A75E9
:10418400284600F035F90123C4F89432B4F8AE326D
:10419400C4F8983294F8A81201F01F03012B0ED032
:1041A400022B11D02BB101F08001204600F0F5FD67
:1041B40003E02946204600F0C9FA002038BD29460C
:1041C400204600F0F7FAF8E72946204600F022FBE3
:1041D400F3E738B504460D4691BB1346D0F8942254
:1041E400032A03D0052A24D0084633E0D0F860110E
:1041F400D0F8642191420DD9891AC0F860118A421D
:1042040006D98AB21946204600F027FC284621E048
:1042140092B2F7E7D0F8B4321B691BB190F89C2234
:10422400032A04D0204600F020FC284612E09847D8
:10423400F8E70021C0F8941200F0AFFD284609E029
:10424400D0F8B4329B6933B190F89C22032A04D18C
:104254009847002038BD0220FCE70220FAE738B571
:1042640004460D46002953D11346D0F89422022A5D
:104274000CD0042A00D01AB98021204600F08DFD0C
:1042840094F8A032012B3ED0284638BD016A426A18
:1042940091421BD8C169B1FBF2F302FB13132BB992
:1042A4008A4203D8D0F8983299421CD3D4F8B43255
:1042B400DB681BB194F89C22032A21D0802120467C
:1042C40000F06BFD204600F0DBFBD9E78A1A02629E
:1042D40092B2194600F0B9FB00231A46194620464B
:1042E40000F092FDCCE70022114600F0AEFB002165
:1042F400C4F898120B460A46204600F085FDBFE735
:1043040020469847DAE7002384F8A0322846BCE721
:10431400D0F8B4325B6933B190F89C22032A04D1FB
:1043240098470020B1E70220AFE70220ADE770B55F
:10433400044640230022114600F01CFD0125C4F868
:1043440058514026C4F86461334600228021204637
:1043540000F010FDA561666284F89C520023C4F845
:1043640094326360C4F8A432D4F8B8322BB1D4F8D0
:10437400B4325B68002120469847002070BD017468
:104384000020704790F89C3280F89D32042380F816
:104394009C320020704790F89C32042B01D00020FE
:1043A400704790F89D3280F89C32F8E708B590F891
:1043B4009C32032B01D0002008BDD0F8B432DB6955
:1043C400002BF8D09847F6E70346002002E00130BE
:1043D400C0B201331A78002AF9D1704708B54B8866
:1043E400012B00D008BDC0F8A43200F03EFBF9E771
:1043F4000B7803704B7843708B78CA7803EB0223F5
:1044040043800B794A7903EB022383808B79CA7941
:1044140003EB0223C380704710B50446802100F0EB
:10442400BCFC0021204600F0B8FC10BD30B583B0C0
:1044340005460C460023ADF806304A88130A013BB2
:10444400062B00F2A480DFE803F004182CA2A28655
:104454009300D0F8B0321B680DF10601007C984738
:10446400BDF806201AB1E388002B40F09480E3885D
:10447400002B00F09A8003B030BD037C43B9D0F820
:10448400B4329B6A0DF10600984702234370E7E7B4
:10449400D0F8B432DB6A0DF106009847022343706A
:1044A400DEE7D2B2052A52D8DFE802F003101D2A53
:1044B4003744D0F8B0325B6823B10DF10601007CBB
:1044C4009847CDE72146FFF7A7FFD4E7D0F8B032ED
:1044D4009B6823B10DF10601007C9847C0E7214693
:1044E400FFF79AFFC7E7D0F8B032DB6823B10DF1CC
:1044F4000601007C9847B3E72146FFF78DFFBAE732
:10450400D0F8B0321B6923B10DF10601007C984745
:10451400A6E72146FFF780FFADE7D0F8B0325B692C
:1045240023B10DF10601007C984799E72146FFF776
:1045340073FFA0E7D0F8B0329B6923B10DF10601F7
:10454400007C98478CE72146FFF766FF93E72146F6
:10455400FFF762FF8FE7037C33B9D0F8B4325B6BAB
:104564000DF1060098477BE72146FFF755FF82E7E8
:10457400037C43B9D0F8B4321B6B0DF106009847A5
:10458400072343706CE72146FFF746FF73E7214694
:10459400FFF742FF6FE79A4228BF1A46ADF806209C
:1045A4000146284600F044FA61E7284600F05DFA27
:1045B40061E738B504468B88F3B9CB88E3B94B88F7
:1045C4007F2B19D803F07F0590F89C32032B0CD075
:1045D40080F89E52294600F007FC204600F045FA78
:1045E40035B1022384F89C3209E0FFF715FF06E099
:1045F400012384F89C3202E02046FFF70DFF38BD0A
:1046040038B504460D468978284B197001290ED80F
:1046140090F89C32022B0ED0032B21D02946FFF7B1
:10462400FBFE224B19782046FFF79FFD02E0294646
:10463400FFF7F2FE38BD81B14160032380F89C325C
:10464400FFF787FD022803D0204600F00EFAF1E7B9
:1046540029462046FFF7E0FEECE700F006FAE9E71A
:1046640089B1436899421DD0D9B2FFF77EFD0F4B43
:10467400197861602046FFF76CFD02280DD02046B2
:1046840000F0F3F9D6E7022380F89C324160FFF78B
:104694006CFD204600F0E9F9CCE729462046FFF7F7
:1046A400BBFEC7E700F0E1F9C4E700BF0407002040
:1046B40008B5CB88012B0AD190F89C32022B09D97A
:1046C400032B09D10122011D00F0B2F901E0FFF72B
:1046D400A3FE08BD5BB213B9FFF79EFEF9E70146DE
:1046E400002341F8083F012200F0A2F9F1E708B5E0
:1046F40090F89C32013B022B12D8CB88022B0CD1B0
:104704000123C360D0F8A4320BB10323C360022297
:1047140000F10C0100F08CF908BDFFF77DFEFBE70A
:10472400FFF77AFEF8E708B590F89C32013B022BBC
:1047340009D84B88012B00D008BD0023C0F8A4324F
:1047440000F093F9F8E7FFF767FEF5E708B50B7893
:1047540003F06003202B05D0402B03D043B1FFF7B7
:104764005BFE03E0D0F8B4329B689847002008BD94
:104774004B78092B1BD8DFE803F011171A141A0819
:10478400051A0E0BFFF752FEF0E7FFF712FFEDE7F5
:10479400FFF736FFEAE7FFF78BFFE7E7FFF7A7FF2F
:1047A400E4E7FFF71BFEE1E7FFF7BDFFDEE7FFF7F6
:1047B40033FEDBE738B505460C460B7803F060039F
:1047C400202B06D0402B04D01BB1FFF725FE002080
:1047D40038BD95F89C32013B022B16D82379012B66
:1047E4000ED8D5F8B4329B68214628469847E3880A
:1047F400002BECD10028EAD1284600F036F9E6E790
:1048040021462846FFF708FEE1E721462846FFF740
:1048140003FEDCE770B505468B880C7804F0600471
:10482400202C07D0DAB2402C04D05CB1FFF7F4FDA1
:10483400002405E0D5F8B4329B6828469847002444
:10484400204670BD202C09D04E78012E33D0032E83
:104854000AD0002E55D0FFF7DFFDF1E7D0F8B432CF
:104864009B6898470446EBE790F89C32022B04D0EF
:10487400032B11D0FFF7D0FDE2E70AB1802A03D160
:104884002846FFF7C9FDDBE7114600F086FA8021D0
:10489400284600F082FAD3E74B8823B91AB1802A5C
:1048A40001D0CB881BB1284600F0DFF8C8E71146D9
:1048B40000F073FAF7E790F89C32022B04D0032B34
:1048C40011D0FFF7A9FDBBE70AB1802A03D128461E
:1048D400FFF7A2FDB4E7114600F05FFA80212846F5
:1048E40000F05BFAACE74B88002BA9D112F07F0FE4
:1048F40003D1284600F0B9F8A2E7114600F055FAB2
:10490400F7E790F89C02022806D0032829D028460D
:10491400FFF782FD344693E70AB1802A13D113F0DE
:10492400800F15D102F07F0202EB8202910001F5A3
:10493400A8712944043100230B600222284600F0A8
:1049440077F834467CE72846FFF766FD344677E778
:1049540002F07F0202EB82029100103129440431FB
:10496400E9E75BB2002B1FDB02F00F0000EB8000D5
:1049740005EB8000D0F8580120B3002B27DB02F0B0
:104984007F0303EB83039C0004F5A8742C440434D4
:104994000AB1802A24D1002323600222214628461A
:1049A40000F046F834464BE702F00F0000EB8000BD
:1049B40005EB800080690028DFD12846FFF72CFD35
:1049C40034463DE72846FFF727FD344638E702F032
:1049D4007F0303EB83039C0010342C440434D7E797
:1049E4001146284600F0E9F910B101232360D4E709
:1049F40000232360D1E7D0B170B50D4616460446B6
:104A0400FFF7E2FC431C5B009BB233802B70032353
:104A14006B70022307E001345A1CD2B2E85402330B
:104A2400DBB20021A95420780028F4D170BD70476E
:104A340008B513460222C0F89422C36103620A46F1
:104A4400002100F0D9F9002008BD08B513460A4634
:104A5400002100F0D1F9002008BD08B513460A462C
:104A6400002100F0D1F9002008BD08B50423C0F8E6
:104A7400943200231A46194600F0BEF9002008BDFE
:104A840008B50523C0F8943200231A46194600F0ED
:104A9400BBF9002008BD000008B500220B490C48F2
:104AA400FFF734FB48B90B490948FFF746FB38B90F
:104AB4000748FFF749FB30B908BDFBF76BFDF2E788
:104AC400FBF768FDF4E7FBF765FDF5E7140100204B
:104AD400080700205800002012230B80004870476C
:104AE4003001002004230B8000487047440100205B
:104AF400002393421ED200B510E00CF1370C01F8EC
:104B040013C000014FEA430C0CF1010C4FF0000EEE
:104B140001F80CE00133DBB2934209D24FEA107C76
:104B2400B0F1204FE9D20CF1300C01F813C0E8E7E2
:104B34005DF804FB7047000038B50B4BD3F8E80769
:104B4400D3F8EC47D3F8F037C01800D138BD074D7F
:104B54000822A91CFFF7CCFF042205F1120120460C
:104B6400FFF7C6FFF2E700BF00F0FF1F4801002077
:104B740008B51A230B80FFF7DFFF014808BD00BF0B
:104B84004801002008B50A4628B905490548FFF739
:104B940032FF034808BD02490248FFF72CFFF8E73B
:104BA400CC090020BC50000810B50A46034C21462D
:104BB4000348FFF720FF204610BD00BFCC090020AA
:104BC400D050000808B50A4628B905490548FFF73A
:104BD40012FF034808BD02490248FFF70CFFF8E73B
:104BE400CC090020E450000808B50A4628B9054954
:104BF4000548FFF700FF034808BD02490248FFF7D4
:104C0400FAFEF8E7CC090020F0500008022805D885
:104C1400DFE800F00504020001207047022070471D
:104C240002680E4B9A4200D0704700B583B003F57A
:104C3400DA33DA6942F40002DA61DB6903F400036F
:104C44000193019B002211461420FBF7A3FE1420BC
:104C5400FBF7D8FE03B05DF804FB00BF005C004026
:104C640008B500F52C71D0F8E802FFF785FA08BD05
:104C740008B501EB810300EBC303D3F87C21D0F822
:104C8400E802FFF7A6FA08BD08B501EB810300EBC3
:104C9400C303DA6BD0F8E802FFF7E1FA08BD08B500
:104CA400D0F8E802FFF782FB08BD10B5044683681C
:104CB400022B09D10121D4F8E802FFF760FBD4F8F4
:104CC400E802FFF734FB10BDFBF764FCF2E70000D9
:104CD40010B50446D0F8E802FFF754FBA36923B1EA
:104CE400024A136943F00603136110BD00ED00E0AE
:104CF40008B5D0F8E802FFF74EFB08BD10B504462E
:104D04001648C0F8E842C4F8C002154B03600823F3
:104D140043600223836000238361C3610362FCF761
:104D24004DFBB8B9182300221146D4F8C002FDF790
:104D340049FA582300228021D4F8C002FDF742FA30
:104D44004FF4807300228121D4F8C002FDF73AFAAF
:104D5400002010BDFBF71EFCE4E700BFCC0B0020D5
:104D6400005C004008B5D0F8C002FCF7B3FBFFF7C5
:104D74004DFF08BD08B594461A466346D0F8C002F4
:104D8400FDF7EBF8FFF742FF08BD08B5D0F8C00205
:104D9400FDF725F9FFF73AFF08BD08B5D0F8C002C2
:104DA400FDF799F9FFF732FF08BD08B5D0F8C00246
:104DB400FDF7CDF9FFF72AFF08BDD0F8C03211F096
:104DC400800F08D101F07F0101EB810103EBC101E8
:104DD40091F86A01704701F07F01013101EB810113
:104DE40003EBC1018878704708B5D0F8C002FCF71E
:104DF400B6FFFFF70BFF08BD08B5D0F8C002FDF7FA
:104E040042F9FFF703FF08BD08B5D0F8C002FDF76B
:104E140018F9FFF7FBFE08BD00487047B80E0020E4
:104E24007047704770B50D4E0D4D761BB61006D009
:104E3400002455F8043B01349847A642F9D1094EA1
:104E4400094D00F0D5F8761BB61006D0002455F8AD
:104E5400043B01349847A642F9D170BD04510008BF
:104E6400045100080C51000804510008830730B5B0
:104E740048D0541E002A3FD00346CAB201E0013C88
:104E84003AD303F8012B9D07F9D1032C2DD9CDB2C8
:104E940045EA05250F2C45EA054536D9A4F110024B
:104EA40022F00F0C03F1200EE6444FEA121C03F12A
:104EB400100242E9045542E9025510327245F8D114
:104EC4000CF1010214F00C0F03EB021204F00F0CAE
:104ED40013D0ACF1040323F003030433134442F866
:104EE400045B9342FBD10CF003042CB1CAB21C4402
:104EF40003F8012B9C42FBD130BD64461346002CC1
:104F0400F4D1F9E703461446BFE71A46A446E0E79E
:104F1400024B13B1024800F005B8704700000000CE
:104F2400354F0008002301461A46184600F01AB807
:104F340038B5084B084D5B1B9C1007D0043B1D443F
:104F4400013C55F804399847002CF9D1BDE83840A4
:104F540000F054B8105100080C510008704700BF0D
:104F6400704700BF2DE9F047DFF87CA00646DAF869
:104F7400000098460F469146FFF7F0FF1B4B1B6855
:104F8400D3F8484124B365681F2D26DC5EB96B1C39
:104F94000235DAF80000636044F82570FFF7E0FF9B
:104FA4000020BDE8F087012304EB8501C1F8889057
:104FB400D4F88821AB401A43022EC4F88821C1F8E2
:104FC4000881E4D1D4F88C211343C4F88C31DEE792
:104FD40003F5A674C3F84841D5E7DAF80000FFF7F3
:104FE400BFFF4FF0FF30DCE79005002000510008C0
:104FF400F8B500BFF8BC08BC9E467047F8B500BFC2
:08500400F8BC08BC9E46704791
:10500C0075700A0D0000000072696768740A0D0063
:10501C006C6566740A0D0000646F776E0A0D0000F3
:10502C006C6566742D636C69636B0A0D000000007F
:10503C006C6566742D72656C656173650A0D000094
:10504C0072696768742D636C69636B0A0D000000EC
:10505C0072696768742D72656C656173650A0D0001
:10506C00776865656C2075700A0D0000776865655A
:10507C006C20646F776E0A0D00000000737461720F
:10508C00740A0D000000000000000000010203047F
:10509C0006070809000000000102030402030405CE
:1050AC00060708090A0B0C0D0E0F1010000000006B
:1050BC005279616E27732053544D3332204D6F75E6
:1050CC007365000053544D6963726F656C6563744E
:1050DC00726F6E696373000048494420436F6E66BB
:1050EC006967000048494420496E746572666163C3
:0850FC006500000068010020BE
:08510400154F00080902000824
:04510C00E5010008B1
:105110000024F40001000000100000000501090255
:10512000A1010901A10005091901290315002501A3
:10513000950375018102950175058101050109300D
:10514000093109381581257F750895038106C00945
:105150003C05FF09011500250175019502B1227575
:10516000069501B101C00000BF4000089D40000845
:10517000893F00080000000000000000713F0008A7
:10518000000000000000000000000000000000001F
:10519000593F00084D3F0008653F00087D3F00086B
:1051A00009022200010100E03209040000010301AC
:1051B0000200092111010001224A000705810304B0
:1051C000000A000009022200010100E03209040087
:1051D000000103010200092111010001224A000718
:1051E0000581030400070000092111010001224A82
:1051F000000000000A06000200000040010000005C
:1052000009022200010100E032090400000103014B
:105210000200092111010001224A0007058103044F
:10522000000A0000DD4A0008E94A0008AD4B00080A
:10523000894B0008754B0008C94B0008ED4B00086E
:10524000120100020000004083042B5700020102FB
:1052500003010000040309041A0300000000000019
:10526000000000000000000000000000000000003E
:1052700000000000000000000000000054040020B6
:10528000BC040020240500200000000000000000F5
:10529000000000000000000000000000000000000E
:1052A00000000000000000000000000000000000FE
:1052B00000000000000000000000000000000000EE
:1052C00000000000000000000000000000000000DE
:1052D00000000000000000000000000000000000CE
:1052E00000000000000000000000000000000000BE
:1052F00000000000000000000000000000000000AE
:10530000000000000000000000000000000000009D
:10531000000000000000000000000000000000008D
:1053200001000000000000000E33CDAB34126DE62A
:10533000ECDE05000B000000000000000000000093
:10534000000000000000000000000000000000005D
:10535000000000000000000000000000000000004D
:10536000000000000000000000000000000000003D
:10537000000000000000000000000000000000002D
:0456A000CC0E00200C
:040000050800089552
:00000001FF
